:100000000C9488000C94B7000C94B7000C94B700C3
:100010000C94B7000C94B7000C94B7000C94B70084
:100020000C94B7000C944C020C94B7000C94B700DD
:100030000C94B7000C94B7000C94B7000C94B70064
:100040000C94B7000C94B7000C9492050C94B70074
:100050000C94B1070C9447080C94B7000C94B700AB
:100060000C94B7000C94B7000C94B7000C94B70034
:100070000C94ED070C947B080C94B7000C94B7001B
:100080000C9469010C94B7000C94B7000000210097
:10009000240027002A0000002200250028002B0051
:1000A00000002000230026002900040403030303AA
:1000B0000303030402020202010101010101010123
:1000C00004020202020404030102010204081020D7
:1000D0004040102040800102040810204080800130
:1000E0000208042010800000000000000000000052
:1000F0000000000000000000000000000000000000
:10010000000304005C015B04B904D304BC09F104DE
:1001100011241FBECFEFD0E4DEBFCDBF11E0A0E0C1
:10012000B1E0E6E5F4E200E00BBF02C007900D92FB
:10013000A437B107D9F724E0A4E7B1E001C01D92CC
:10014000AF35B207E1F711E0CEE0D1E000E006C044
:1001500022970109FE010BBF0E944311C430D10751
:1001600080E00807A9F70E945E0A0C9419120C940B
:1001700000008F929F92AF92BF92CF92DF92EF9248
:10018000FF920F931F93CF93DF93EC015A018B01E2
:10019000C0907401D0907501E0907601F0907701E5
:1001A000A7019601B501C8010E94410F87FD13C048
:1001B00020E030E048EC52E4B501C8010E94901004
:1001C00018163CF4C12CD12C88ECE82E82E4F82ED1
:1001D00002C0650178018A819B81AC81BD818E83DB
:1001E0009F83A887B987CA82DB82EC82FD828881DF
:1001F000811104C0F7FAF094F7F8F09420E030E0B1
:1002000048EC52E4C701B6010E94450F20E030E0FF
:100210004FE753E40E9494106B017C018A849B8415
:10022000AC84BD84A50194010E94901018165CF462
:1002300061E088890E944D0760E08A890E944D072D
:10024000C701B60114C0A50194015058C701B601F9
:100250000E94410F87FF11C060E088890E944D070E
:1002600061E08A890E944D07C701B60190580E943B
:10027000AD0F8E850E94520611C060E070E08E8541
:100280000E94520660E08E850E944D0760E08889DA
:100290000E944D0760E08A890E944D071982DF9114
:1002A000CF911F910F91FF90EF90DF90CF90BF9073
:1002B000AF909F908F90089580E090E0A8ECB2EC12
:1002C0008093740190937501A0937601B0937701A8
:1002D00008951F920F920FB60F9211240BB60F9232
:1002E0002F933F934F935F936F937F938F939F933E
:1002F000AF93BF93EF93FF938091790187FF05C080
:1003000010929500109294001AC020917901332721
:1003100027FD30958091780190E0281739077CF40B
:1003200080917901992787FD9095FC01EE0FFF1FC1
:10033000E80FF91FE658FE4F808186FD15C08091B9
:1003400079018F5F8093790120917901332727FD0F
:1003500030958091780190E028173907BCF480919E
:1003600079018C305CF112C080917901992787FD69
:100370009095FC01EE0FFF1FE80FF91FE658FE4FA6
:10038000808160E08F730E944D07D9CF80919400E7
:1003900090919500049680349C4918F480E49CE97F
:1003A00005C08091940090919500049690939900D7
:1003B000809398008FEF8093790138C080919400EA
:1003C0009091950020917901332727FD3095F9010F
:1003D000EE0FFF1FE20FF31FE658FE4F218132811F
:1003E000820F931F909399008093980080917901D8
:1003F000992787FD9095FC01EE0FFF1FE80FF91F6D
:10040000E658FE4F808186FF11C0809179019927BF
:1004100087FD9095FC01EE0FFF1FE80FF91FE658CE
:10042000FE4F808161E08F730E944D07FF91EF9135
:10043000BF91AF919F918F917F916F915F914F91FC
:100440003F912F910F900BBE0F900FBE0F901F90FA
:100450001895209178012C30A0F431E0320F3093C0
:100460007801FC012283822F90E0FC01EE0FFF1F38
:10047000E80FF91FE658FE4F88EB9BE092838183DB
:1004800008952FEFFC0122830895FC0115826093EB
:100490009E011092A00108951F920F920FB60F9225
:1004A00011240BB60F922F933F934F935F936F934B
:1004B0007F938F939F93AF93BF93EF93FF9380911D
:1004C0009E010E9480072091A1013091A2012F5F1F
:1004D0003F4F3093A2012093A10190916B0294367B
:1004E00018F095E090939F0190919F019330B9F09F
:1004F00018F4923039F057C0943059F1953009F41E
:100500004CC051C081114FC02091A1013091A20176
:100510002436310508F443C010926B021CC08130B0
:1005200009F041C0E0916B0291E09E0F90936B0245
:10053000F0E02091A1013091A201EE0FFF1FE256E1
:10054000FE4F368325831092A2011092A10194E000
:1005500021C0811117C0E0916B0291E09E0F909332
:100560006B02F0E02091A1013091A201EE0FFF1F7C
:10057000E256FE4F368325831092A2011092A1010C
:1005800093E008C02091A1013091A20125363105E8
:1005900050F095E090939F0106C0811104C0109225
:1005A000A2011092A1019091A001992329F081113B
:1005B00002C02D9A01C02D98FF91EF91BF91AF918C
:1005C0009F918F917F916F915F914F913F912F916B
:1005D0000F900BBE0F900FBE0F901F901895FF92BB
:1005E0000F931F93CF93DF93FC01C62FD42FF22ECE
:1005F000832F008311821282138214821582168245
:100600001782108611860DEC1CEC2CEC3DE3028762
:1006100013872487358766877787408B518BF28ACB
:10062000838B61E08C2F0E94D00661E08D2F0E94A9
:10063000D00661E08F2D0E94D00660E08C2F0E94D2
:100640004D0760E08D2F0E944D0760E08F2DDF91F8
:10065000CF911F910F91FF900C944D070F9380E065
:1006600090E0A8ECB2EC8093F0029093F102A0939A
:10067000F202B093F3026EE070E08AEE92E00E9424
:10068000450285EE92E00E94290280EE92E00E94EF
:1006900029021092DF021092DE021092DB02109209
:1006A000DA0221E030E03093DD022093DC02309367
:1006B000B8022093B70265E06093B9024FEF5FEF95
:1006C0005093D9024093D8028DE292EBA6E6B1E4B2
:1006D0008093BA029093BB02A093BC02B093BD0278
:1006E00084E299EBACEDBFE38093BE029093BF022E
:1006F000A093C002B093C10280E090E0A0EAB1E410
:100700008093C2029093C302A093C402B093C50227
:1007100084EB98ECA1E9B1E48093C6029093C70200
:10072000A093C802B093C90283E49CE1ADEAB0E4AF
:100730008093CA029093CB02A093CC02B093CD02D7
:1007400080E090E0ACE8B2E48093CE029093CF02D8
:10075000A093D002B093D1028EEF91E09093D30298
:100760008093D20289EB90E09093D5028093D402DB
:1007700085E690E09093D7028093D602309395025D
:1007800020939402609396025093B6024093B50270
:1007900086EE9FE3A8ECB0E48093970290939802D2
:1007A000A0939902B0939A028FE29DEDACEEBFE365
:1007B00080939B0290939C02A0939D02B0939E0213
:1007C00080E090E0A0E2B1E480939F029093A002C9
:1007D000A093A102B093A2028AEA92E8ACE0B1E44D
:1007E0008093A3029093A402A093A502B093A602C3
:1007F0008AE191E5A2ECB0E48093A7029093A8026D
:10080000A093A902B093AA0280E090E0ACE0B2E429
:100810008093AB029093AC02A093AD02B093AE0272
:1008200083E092E09093B0028093AF0287EA90E079
:100830009093B2028093B1028AE590E09093B40263
:100840008093B30201E028E130E047E150E06BE142
:1008500070E080E892E00E94EF022AE130E049E196
:1008600050E06CE170E08CE692E00E94EF020F91A4
:10087000089540E052EC61E070E087E193E00E946F
:10088000AF0840E052EC61E070E089EB93E00E9439
:10089000AF0880E00E9430060E947C0B80E190E06F
:1008A0009093E6028093E50281E190E09093E1026B
:1008B0008093E00208950C942E03EF92FF920F9321
:1008C0001F93CF93DF93CDB7DEB72C970FB6F89475
:1008D000DEBF0FBECDBF8C0160E20E94C40B7C0165
:1008E0008FEFE816F806B1F1970140E050E0B8014B
:1008F000CE0107960E94C70CF80124813581A7011B
:100900004F5F5F4FB801CE0101960E94C70CCE0128
:1009100007960E94950B0E94E00FAB01BC0180E896
:1009200092E00E94B900CE0101960E94950B0E94B0
:10093000E00FAB01BC018CE692E00E94B900CE0151
:1009400001960E94250DCE0107960E94250D80E09C
:1009500090E002C08FEF9FEF2C960FB6F894DEBFA9
:100960000FBECDBFDF91CF911F910F91FF90EF9000
:10097000089580E090E0A8ECB2EC8093F4029093AC
:10098000F502A093F602B093F702089588EF92E083
:100990000E94250D8EEF92E00E94250D84E093E0E9
:1009A0000C94250D089580E090E0A8ECB2EC8093C3
:1009B0000A0390930B03A0930C03B0930D036CE414
:1009C00071E084E093E00E94950C6CE471E08EEF9E
:1009D00092E00E94950C6CE471E088EF92E00C9438
:1009E000950C0C94C604CF93DF9300D000D000D0B8
:1009F000CDB7DEB70E94390448EE53E060E070E006
:100A000087E193E00E942D0B87E193E00E94360975
:100A100018161906CCF767E173E0CE0101960E9423
:100A20005F0BBE016F5F7F4F84E093E00E940E0D6D
:100A3000CE0101960E94250D60E284E093E00E94C1
:100A4000C40B8C010F3F8FEF1807F1F2980140E0C3
:100A500050E064E073E0CE0101960E94C70CBE0135
:100A60006F5F7F4F8EEF92E00E940E0DCE010196D8
:100A70000E94250D2091080330910903A8014F5FC2
:100A80005F4F64E073E0CE0101960E94C70CBE0187
:100A90006F5F7F4F88EF92E00E940E0DCE010196AE
:100AA0000E94250D65E271E08EEF92E00E94C90B75
:100AB0008823B1F06BE171E087E193E00E94D30AF3
:100AC00088EF92E00E945D04892B09F49DCF6BE2D0
:100AD00071E087E193E00E94D30A64E073E016C0FE
:100AE00069E471E08EEF92E00E94C90B882399F0CF
:100AF0006CE371E087E193E00E94D30A6EEF72E04D
:100B000087E193E00E94190B68EF72E087E193E0C0
:100B10000E94190B79CF6DE471E087E193E00E94A8
:100B2000D30A72CF1F920F920FB60F9211242F93F8
:100B30003F938F939F93AF93BF93809112039091B4
:100B40001303A0911403B09115033091160301967D
:100B5000A11DB11D232F2D5F2D3720F02D5701969C
:100B6000A11DB11D209316038093120390931303CC
:100B7000A0931403B093150380910E0390910F037B
:100B8000A0911003B09111030196A11DB11D809396
:100B90000E0390930F03A0931003B0931103BF9122
:100BA000AF919F918F913F912F910F900FBE0F901A
:100BB0001F9018958FB7F89420911203309113036A
:100BC00040911403509115038FBFB901CA010895D4
:100BD000789484B5826084BD84B5816084BD85B518
:100BE000826085BD85B5816085BDEEE6F0E08081DF
:100BF00081608083E1E8F0E0108280818260808300
:100C0000808181608083E0E8F0E080818160808382
:100C1000E1EBF0E0808184608083E0EBF0E08081B4
:100C200081608083E1E9F0E080818260808380815F
:100C300081608083E0E9F0E0808181608083EAE781
:100C4000F0E0808184608083808182608083808105
:100C5000816080838081806880831092C1000895C4
:100C6000982F883108F098519770809114018295DF
:100C7000880F880F807C892B80937C0080917A007C
:100C8000806480937A0080917A0086FDFCCF209169
:100C9000780040917900942F80E030E0282B392BA8
:100CA000C90108951F93CF93DF93182FEB0161E0E3
:100CB0000E94D006209709F468C0CF3FD10509F4FF
:100CC00067C0E12FF0E0EA51FF4F8491843061F179
:100CD000853040F48230C9F08330E0F4813009F08F
:100CE00051C00EC0873091F1883020F4863009F071
:100CF00049C024C0883091F1893009F043C038C020
:100D000084B5806884BDC7BD47C084B5806284BD9A
:100D1000C8BD42C080918000806880938000D093DD
:100D20008900C093880038C08091800080628093E1
:100D30008000D0938B00C0938A002EC08091B000B9
:100D400080688093B000C093B30026C08091B0004B
:100D500080628093B000C093B4001EC08091900068
:100D6000806880939000D0939900C093980014C03D
:100D700080919000806280939000D0939B00C093FC
:100D80009A000AC0C038D1051CF4812F60E002C06F
:100D9000812F61E00E944D07DF91CF911F9108954F
:100DA000CF93DF93482F50E0CA0188539F4FFC0137
:100DB000349146555F4FFA018491882369F190E0A0
:100DC000880F991FFC01E457FF4FA591B491FC01D6
:100DD000EA56FF4FC591D491662351F42FB7F8948A
:100DE0008C91932F909589238C93888189230BC0B4
:100DF000623061F42FB7F8948C91932F90958923EA
:100E00008C938881832B88832FBF06C09FB7F8946B
:100E10008C91832B8C939FBFDF91CF910895843069
:100E2000C9F0853038F48230F1F0833078F48130C5
:100E300099F516C08730F9F0883018F4863061F5DE
:100E400016C08830F1F0893039F521C080918000DA
:100E50008F7703C0809180008F7D809380000895FC
:100E600084B58F7702C084B58F7D84BD089580914D
:100E7000B0008F7703C08091B0008F7D8093B00069
:100E80000895809190008F778093900008958091CD
:100E900090008F7D809390000895FF920F931F9391
:100EA000F62E482F50E0CA018A519F4FFC01249131
:100EB000CA0188539F4FFC01149146555F4FFA01B8
:100EC00004910023C9F0222319F0822F0E940F07FA
:100ED000E02FF0E0EE0FFF1FEA56FF4FA591B4910F
:100EE0009FB7F894FF2021F48C911095812302C0C4
:100EF0008C91812B8C939FBF1F910F91FF90089530
:100F00000F931F93482F50E0CA018A519F4FFC0155
:100F10002491CA0188539F4FFC01049146555F4FAD
:100F2000FA011491112319F420E030E015C02223B6
:100F300019F0822F0E940F07812F90E0880F991FD0
:100F400080569F4FFC01A591B4918C9120E030E038
:100F5000802311F021E030E0C9011F910F91089525
:100F600008951F920F920FB60F920BB60F92112495
:100F70002F933F934F938F939F93EF93FF93809182
:100F8000C00082FD19C04091C60080913503282F12
:100F900030E02F5F3F4F2F7330708091360390E029
:100FA0002817390759F0E0913503F0E0E95EFC4F6E
:100FB00042A32093350302C08091C600FF91EF91B8
:100FC0009F918F914F913F912F910F900BBE0F905A
:100FD0000FBE0F901F90189508951F920F920FB695
:100FE0000F920BB60F9211242F933F934F938F9331
:100FF0009F93EF93FF938091C80082FD19C04091A9
:10100000CE008091D703282F30E02F5F3F4F2F7302
:1010100030708091D80390E02817390759F0E0919B
:10102000D703F0E0E754FC4F42A32093D70302C05C
:101030008091CE00FF91EF919F918F914F913F91C1
:101040002F910F900BBE0F900FBE0F901F90189511
:10105000809135032091360390E0805C9F4F821B86
:1010600091098F739070892B11F00E94B0078091C5
:10107000D7032091D80390E0805C9F4F821B910999
:101080008F739070892B11F00E94EC0708951F92C6
:101090000F920FB60F920BB60F9211242F938F93CE
:1010A0009F93EF93FF9390913703809138039817A4
:1010B00031F48091C1008F7D8093C10010C0E09118
:1010C0003803F0E0E758FC4F20818091380390E02E
:1010D00001968F739070809338032093C600FF9120
:1010E000EF919F918F912F910F900BBE0F900FBE9C
:1010F0000F901F9018951F920F920FB60F920BB67C
:101100000F9211242F938F939F93EF93FF939091BE
:10111000D9038091DA03981731F48091C9008F7D4B
:101120008093C90010C0E091DA03F0E0E55EFB4F68
:1011300020818091DA0390E001968F739070809304
:10114000DA032093CE00FF91EF919F918F912F9121
:101150000F900BBE0F900FBE0F901F901895AF927F
:10116000BF92DF92EF92FF920F931F93CF93DF9383
:10117000EC017A018B01DD24403081EE580780E0DC
:10118000680780E0780711F0DD24D39491E0A92E60
:10119000B12CE889F989DD2069F0C5010C8C02C009
:1011A000880F991F0A94E2F7808360E079E08DE36D
:1011B00090E005C0108260E874E88EE190E0A8013C
:1011C00097010E94F7102150304040405040569502
:1011D00047953795279580E12030380720F0DD20AE
:1011E00011F0DD24D6CFEC85FD853083EE85FF85BB
:1011F00020831D8EEA89FB89408121E030E0C9010E
:10120000088C02C0880F991F0A94E2F7482B40838C
:10121000EA89FB894081C901098C02C0880F991FA6
:101220000A94E2F7482B4083EA89FB894081C9018F
:101230000A8C02C0880F991F0A94E2F7482B40835A
:10124000EA89FB8980810B8C02C0220F331F0A942C
:10125000E2F7209528232083DF91CF911F910F91F2
:10126000FF90EF90DF90BF90AF900895FC01268D26
:10127000878D30E0205C3F4F281B31092F73307081
:10128000C9010895FC01968D878D981719F42FEFE9
:101290003FEF06C0878DE80FF11D82A1282F30E0B7
:1012A000C9010895DC015E969C915E975F968C91D2
:1012B0005F97981719F42FEF3FEF10C05F968C914E
:1012C0005F97FD01E80FF11D92A15F968C915F97EA
:1012D0008F5F8F735F968C93292F30E0C90108953B
:1012E000DC015D968C915D97882339F05096ED91E5
:1012F000FC915197808186FFF9CF5D961C920895ED
:10130000DC0190968C919097282F30E02F5F3F4F13
:101310002F73307091968C91919790E02817390730
:10132000C9F390968C919097FD01E80FF11DEE594D
:10133000FF4F608390962C9390975296ED91FC917D
:101340005397208181E090E05B960C905B9702C000
:10135000880F991F0A94E2F7282B208381E05D967D
:101360008C935D975096ED91FC91519780818064AC
:10137000808381E090E008951F9310921A031092E9
:10138000190328EE33E040E050E020931B03309334
:101390001C0340931D0350931E0367E671E0709396
:1013A00018036093170310923803809138038093D9
:1013B000370310923603809136038093350385EC12
:1013C00090E0909324038093230384EC90E0909327
:1013D00026038093250380EC90E09093280380936C
:1013E000270381EC90E090932A038093290382ECF9
:1013F00090E090932C0380932B0386EC90E09093E5
:101400002E0380932D0314E010932F03B3E0B093C9
:101410003003A7E0A0933103F5E0F0933203E1E05D
:10142000E09333031092BC031092BB032093BD03DF
:101430003093BE034093BF035093C0037093BA032D
:101440006093B9031092DA038091DA038093D90391
:101450001092D8038091D8038093D7038DEC90E04D
:101460009093C6038093C5038CEC90E09093C803DF
:101470008093C70388EC90E09093CA038093C903DC
:1014800089EC90E09093CC038093CB038AEC90E0BE
:101490009093CE038093CD038EEC90E09093D00395
:1014A0008093CF031093D103B093D203A093D303BF
:1014B000F093D403E093D5031F910895CF93DF9366
:1014C0000E94E8050E94F304C8E2D8E00E94D2041A
:1014D0002097E1F30E942808F9CFCF92DF92EF9294
:1014E000FF920F931F93CF93DF937C016B018A01CF
:1014F000C0E0D0E00FC0D6016D916D01D701ED9134
:10150000FC910190F081E02DC7010995C80FD91F0A
:10151000015010400115110571F7CE01DF91CF91F7
:101520001F910F91FF90EF90DF90CF900895EF9271
:10153000FF920F931F938C01DC01ED91FC910190C0
:10154000F081E02D6DE009957C01D801ED91FC91D1
:101550000190F081E02DC8016AE009959C012E0DF3
:101560003F1DC9011F910F91FF90EF900895CF93F8
:10157000DF93EC016115710519F420E030E00FC034
:10158000DB010D900020E9F71197A61BB70BE8814E
:10159000F9810280F381E02DAD0109959C01C9011B
:1015A000DF91CF910895EF92FF920F931F937C01EB
:1015B0000E94B70A8C01C7010E94970A080F191FE1
:1015C000C8011F910F91FF90EF900895AF92BF92C5
:1015D000CF92DF92EF92FF920F931F93CF93DF93FF
:1015E0005C016B01EE24FF24C0E0D0E010C0D50107
:1015F000ED91FC9100811181C601BE010E94840B16
:10160000682FC501F8010995E80EF91E2196F6012B
:1016100084819581C817D90750F3C701DF91CF9115
:101620001F910F91FF90EF90DF90CF90BF90AF9000
:101630000895EF92FF920F931F937C010E94E60A98
:101640008C01C7010E94970A9C01200F311FC9011C
:101650001F910F91FF90EF900895FC0144835583F3
:10166000668377830895CF93DF93EC010E94DA05B8
:10167000688779878A879B87E881F9810680F78167
:10168000E02DCE0109959C0197FF15C00E94DA0557
:10169000288539854A855B85621B730B840B950B06
:1016A0002C813D814E815F81621773078407950706
:1016B00018F32FEF3FEFC901DF91CF9108950F93FA
:1016C0001F93CF93DF93182F092FEB016EE071E08A
:1016D0000E94950C04C0812F902F0E944F0CCE01C8
:1016E0000E94330BBC0197FFF6CF812F902FDF9123
:1016F000CF911F910F910895009729F0BC0180E0D0
:1017000090E00E94A8110895FC01848195816817DA
:10171000790748F40190F081E02D309721F0E60F31
:10172000F71F8081089580E00895FC0180819181F8
:10173000009729F420E030E040E050E004C00E942F
:10174000B1119B01AC01B901CA010895CF93DF9398
:10175000FC01848195814817590768F4C081D181C3
:10176000772767FD7095CE01840F951F0E94E111C8
:101770009C01009719F42FEF3FEF02C02C1B3D0B8B
:10178000C901DF91CF91089540E050E00E94A60B7F
:101790000895DC01FB0114968D919C911597892B7E
:1017A00031F461157105A9F090E0808108C00D90B9
:1017B000BC91A02D6115710529F490E08C918823CE
:1017C00049F407C0CD010E94EC119C0190E0232B4D
:1017D00009F491E0892F08950F931F93CF93DF931E
:1017E000EC018B016F5F7F4F888199810E94600EB1
:1017F000009711F480E005C0998388831B830A83D6
:1018000081E0DF91CF911F910F910895CF93DF93E6
:10181000EC0188819981892B29F08A819B81861727
:10182000970760F4CE010E94EC0B882341F08C8175
:101830009D81892B19F4E881F981108281E0DF9183
:10184000CF910895EF92FF920F931F93CF93DF9361
:10185000EC017B016C817D81E114F104C1F0411543
:10186000510599F08A01060F171FB8010E94060C56
:10187000882369F0888199812C813D81820F931F93
:10188000B7010E94F5111D830C8381E001C080E047
:10189000DF91CF911F910F91FF90EF900895DF930B
:1018A000CF9300D0CDB7DEB769831A82BE016F5FD8
:1018B0007F4F41E050E00E94220C0F900F90CF919B
:1018C000DF910895CF93DF93EC0188819981009790
:1018D00011F00E94C80D198218821D821C821B8281
:1018E0001A82DF91CF910895EF92FF920F931F9389
:1018F000CF93DF93EC017B018A01BA010E94060CB1
:10190000882321F4CE010E94620C07C01D830C8342
:1019100088819981B7010E94F511CE01DF91CF91A5
:101920001F910F91FF90EF900895CF93DF93EC01FB
:10193000198218821B821A821D821C826115710510
:1019400051F0DB010D900020E9F71197A61BB70BB2
:10195000AD010E94740CDF91CF9108950F931F93F6
:10196000182F092F6115710559F0DB010D9000202A
:10197000E9F71197A61BB70BAD010E94740C02C0CA
:101980000E94620C812F902F1F910F910895BF929A
:10199000CF92DF92EF92FF920F931F93CF93DF933B
:1019A000082FB92E6B017A01E9012417350710F4CD
:1019B000EA017901802F9B2D6FE071E00E94950C68
:1019C000D60114968D919C9115978E159F05D0F098
:1019D0008C179D0708F4EC01D601ED91FC9111974D
:1019E000EC0FFD1F108110826D917C916E0D7F1D9B
:1019F000802F9B2D0E94AE0CD601ED91FC91EC0F37
:101A0000FD1F1083802F9B2DDF91CF911F910F9190
:101A1000FF90EF90DF90CF90BF900895CF93DF932A
:101A2000EC01FB018617970761F0608171816115F8
:101A3000710529F0448155810E94740C02C00E94F6
:101A4000620CCE01DF91CF910895FC0180819181DC
:101A50000E94C80D08950F931F93CF93DF93BC018D
:101A60008230910510F462E070E0E0915D04F09145
:101A70005E0440E050E0A0E0B0E024C080819181AD
:101A800086179707D0F08617970771F482819381A4
:101A9000109729F013969C938E9312972CC09093D5
:101AA0005E0480935D0427C04115510519F0841729
:101AB000950718F48D01AC01EF01DF01828193815C
:101AC0009C01F9013097D1F641155105F9F0CA0191
:101AD000861B970B8430910580F48A819B810115C8
:101AE000110521F0F8019383828304C090935E0472
:101AF00080935D04FE01329645C0FE01E80FF91F98
:101B0000619371930297998388833CC080915B04B1
:101B100090915C04892B41F48091170190911801F8
:101B200090935C0480935B044091190150911A01D9
:101B30004115510541F44DB75EB780911501909163
:101B40001601481B590B20915B0430915C0424174B
:101B50003507B0F4CA01821B930B8617970780F0F4
:101B6000AB014E5F5F4F8417950750F0420F531F34
:101B700050935C0440935B04F9016193719302C03C
:101B8000E0E0F0E0CF01DF91CF911F910F91089538
:101B9000CF93DF939C01009709F48FC0EC0122974B
:101BA0001B821A8260915D0470915E04611571055B
:101BB00081F488819981820F931F20915B04309179
:101BC0005C042817390739F5D0935C04C0935B0493
:101BD00074C0DB0140E050E0AC17BD0708F1BB83E7
:101BE000AA83FE0121913191E20FF31FAE17BF07C7
:101BF00079F48D919C911197280F391F2E5F3F4FDB
:101C00003983288312968D919C9113979B838A83A5
:101C10004115510571F4D0935E04C0935D044DC02D
:101C200012968D919C911397AD01009711F0DC01F4
:101C3000D3CFDA011396DC93CE931297FA01219158
:101C40003191E20FF31FCE17DF0769F48881998184
:101C5000280F391F2E5F3F4FFA01318320838A817D
:101C60009B8193838283E0E0F0E0DB0112968D910B
:101C70009C911397009719F0BC01FD01F6CFAB01C1
:101C80004E5F5F4FDB018D919C91840F951F2091DA
:101C90005B0430915C042817390779F4309729F4F4
:101CA00010925E0410925D0402C0138212824250B0
:101CB000504050935C0440935B04DF91CF910895B2
:101CC0006F927F928F929F92AF92BF92CF92DF924C
:101CD000EF92FF920F931F93CF93DF938C010097A6
:101CE00029F4CB010E942B0D8C01BBC08EEFE82E96
:101CF0008FEFF82EE00EF11E4801860E971E8E140F
:101D00009F0408F4ACC0D7014D915C911197461720
:101D10005707B8F04530510508F4A3C0CA0104972D
:101D20008617970708F49DC042505040461B570B3A
:101D3000F401419351936D937C93CF010E94C80DA0
:101D400090C05B01A41AB50A3801640E751EA091FB
:101D50005D04B0915E04E0E0F0E0CC24DD2447C0F7
:101D6000A615B705A9F5CD91DC911197CE01029684
:101D70008A159B0568F1CE018A199B090296129675
:101D80002C91129713963C91059758F0F4012283F9
:101D90003383CA19DB09D183C083D7016D937C9348
:101DA00009C04E5F5F4F4C0F5D1FF70151834083A9
:101DB000C901FC01C114D10431F0D6011396FC9382
:101DC000EE9312974EC0F0935E04E0935D0449C019
:101DD0008D919C911197E817F90708F4FC016D01AA
:101DE00012968C91129713969C919C01D901109791
:101DF00009F0B6CF80915B0490915C04861597053D
:101E0000E9F4E617F707D0F42091190130911A018F
:101E10002115310541F42DB73EB780911501909100
:101E20001601281B390B82169306C8F490925C04A5
:101E300080925B04F7017183608313C0CB010E9421
:101E40002B0DEC01009759F0D7014D915C91B80131
:101E50000E94D811C8010E94C80D8E0102C000E086
:101E600010E0C801DF91CF911F910F91FF90EF908B
:101E7000DF90CF90BF90AF909F908F907F906F90AA
:101E80000895D9D008F481E008950CD00FC107D18E
:101E900040F0FED030F021F45F3F19F0F0C0511156
:101EA00039C1F3C014D198F39923C9F35523B1F381
:101EB000951B550BBB27AA2762177307840738F0B9
:101EC0009F5F5F4F220F331F441FAA1FA9F333D018
:101ED0000E2E3AF0E0E830D091505040E695001CCC
:101EE000CAF729D0FE2F27D0660F771F881FBB1F88
:101EF000261737074807AB07B0E809F0BB0B802D62
:101F0000BF01FF2793585F4F2AF09E3F510568F0AD
:101F1000B6C000C15F3FECF3983EDCF38695779541
:101F20006795B795F7959F5FC9F7880F911D9695AF
:101F3000879597F90895E1E0660F771F881FBB1F0B
:101F4000621773078407BA0720F0621B730B840BB8
:101F5000BA0BEE1F88F7E095089504D06894B1118C
:101F6000D9C00895BCD088F09F5790F0B92F992719
:101F7000B751A0F0D1F0660F771F881F991F1AF094
:101F8000BA95C9F712C0B13081F0C3D0B1E008955D
:101F9000C0C0672F782F8827B85F39F0B93FCCF3DE
:101FA000869577956795B395D9F73EF4909580958A
:101FB000709561957F4F8F4F9F4F0895E89409C0AA
:101FC00097FB3EF490958095709561957F4F8F4F6C
:101FD0009F4F9923A9F0F92F96E9BB279395F69582
:101FE000879577956795B795F111F8CFFAF4BB0F00
:101FF00011F460FF1BC06F5F7F4F8F4F9F4F16C064
:10200000882311F096E911C0772321F09EE8872FED
:10201000762F05C0662371F096E8862F70E060E0A9
:102020002AF09A95660F771F881FDAF7880F969522
:10203000879597F90895990F0008550FAA0BE0E8C6
:10204000FEEF16161706E807F907C0F0121613067A
:10205000E407F50798F0621B730B840B950B39F4BA
:102060000A2661F0232B242B252B21F408950A2620
:1020700009F4A140A6958FEF811D811D089597F960
:102080009F6780E870E060E008959FEF80EC08951E
:1020900000240A9416161706180609060895002447
:1020A0000A9412161306140605060895092E0394C1
:1020B000000C11F4882352F0BB0F40F4BF2B11F435
:1020C00060FF04C06F5F7F4F8F4F9F4F089557FD94
:1020D0009058440F551F59F05F3F71F04795880F96
:1020E00097FB991F61F09F3F79F08795089512162D
:1020F00013061406551FF2CF4695F1DF08C01616D9
:1021000017061806991FF1CF869571056105089489
:102110000895E894BB2766277727CB0197F90895A0
:102120008ADF08F48FEF08950BD0C0CFB1DF28F01D
:10213000B6DF18F0952309F0A2CFA7CF1124EACF7C
:10214000C6DFA0F3959FD1F3950F50E0551F629F16
:10215000F001729FBB27F00DB11D639FAA27F00D00
:10216000B11DAA1F649F6627B00DA11D661F829F27
:102170002227B00DA11D621F739FB00DA11D621F0C
:10218000839FA00D611D221F749F3327A00D611D29
:10219000231F849F600D211D822F762F6A2F11240B
:1021A0009F5750408AF0E1F088234AF0EE0FFF1F5E
:1021B000BB1F661F771F881F91505040A9F79E3F95
:1021C000510570F05CCFA6CF5F3FECF3983EDCF397
:1021D000869577956795B795F795E7959F5FC1F7D2
:1021E000FE2B880F911D9695879597F90895A1E28A
:1021F0001A2EAA1BBB1BFD010DC0AA1FBB1FEE1F81
:10220000FF1FA217B307E407F50720F0A21BB30BCB
:10221000E40BF50B661F771F881F991F1A9469F747
:1022200060957095809590959B01AC01BD01CF01A3
:102230000895052E97FB1EF400940E94301157FD5F
:1022400007D00E94F71007FC03D04EF40C94301115
:1022500050954095309521953F4F4F4F5F4F0895D2
:1022600090958095709561957F4F8F4F9F4F089502
:102270000E944711A59F900DB49F900DA49F800DC3
:10228000911D112408950790F691E02D0994A29FC5
:10229000B001B39FC001A39F700D811D1124911D3A
:1022A000B29F700D811D1124911D08958F929F92F0
:1022B000AF92BF92CF92DF92EF92FF92CF93DF93D4
:1022C000EC01688179818A819B81611571058105A5
:1022D000910521F464E279ED8BE597E02DE133EF90
:1022E00041E050E00E94191149015A019B01AC01E3
:1022F000A7EAB1E40E9438116B017C01ACEEB4EFA7
:10230000A50194010E941412C60ED71EE81EF91EE4
:10231000F7FE06C081E0C81AD108E10880E8F80A93
:10232000C882D982EA82FB82C701B6019F77DF911A
:10233000CF91FF90EF90DF90CF90BF90AF909F90A4
:102340008F9008950C94561180E191E00C945611F1
:102350006093100170931101809312019093130107
:1023600008951F93FC0199278827BC01E8941191D7
:102370001032E9F3193010F01E30C8F31B3251F05F
:102380001D3249F4689406C00E94FC11610F711D52
:10239000811D911D119110531A30B0F33EF49095A8
:1023A0008095709561957F4F8F4F9F4F1F91089536
:1023B000FB01DC0102C001900D9241505040D8F762
:1023C0000895FC018191861721F08823D9F7992778
:1023D00008953197CF010895FB01DC018D910190A3
:1023E00080190110D9F3990B0895FB01DC010190CC
:1023F0000D920020E1F70895592F482F372F262FEF
:10240000660F771F881F991F660F771F881F991FF8
:10241000620F731F841F951F660F771F881F991FF8
:102420000895B7FF0C9438110E943811821B930B4A
:10243000089511E0CEE0D1E000E006C02297010946
:10244000FE010BBF0E944311C031D10780E0080795
:06245000A9F7F894FFCF8C
:102456006E616E00696E66006F7666002E00000083
:10246600010000000180005F040000456C20434D20
:1024760044206573204D4F544F52004572726F725F
:1024860020656E20636F6D616E646F00456C20433E
:102496004D44207469656E65204C454400436F6D5C
:1024A600616E646F206E6F207265636F6E6F636915
:1024B600646F000000000080096D0A360952094267
:0424C6000970090090
:00000001FF
