:100000000C9487000C94B6000C94B6000C94B600C7
:100010000C94B6000C94B6000C94B6000C94B60088
:100020000C94B6000C94A8010C94B6000C94B60085
:100030000C94B6000C94B6000C94B6000C94B60068
:100040000C94B6000C94B6000C9400040C94B6000A
:100050000C94A1050C9437060C94B6000C94B600D1
:100060000C94B6000C94B6000C94B6000C94B60038
:100070000C94DD050C946B060C94B6000C94B60041
:100080000C94C5000C94B6000C94B600000021003E
:10009000240027002A0000002200250028002B0051
:1000A00000002000230026002900040403030303AA
:1000B0000303030402020202010101010101010123
:1000C00004020202020404030102010204081020D7
:1000D0004040102040800102040810204080800130
:1000E0000208042010800000000000000000000052
:1000F0000000000000000000000000000000000000
:1001000000030400B800B703BA03AC07CC03112402
:100110001FBECFEFD0E4DEBFCDBF11E0A0E0B1E065
:10012000EEE5FAE100E00BBF02C007900D92AC32A1
:10013000B107D9F724E0ACE2B1E001C01D92A730CD
:10014000B207E1F711E0CCE0D1E000E006C0229771
:100150000109FE010BBF0E94970CC430D10780E05B
:100160000807A9F70E944E080C941D0D0C9400007E
:1001700080E090E0A8ECB2EC80932C0190932D01EC
:10018000A0932E01B0932F0108951F920F920FB6E6
:100190000F9211240BB60F922F933F934F935F93BF
:1001A0006F937F938F939F93AF93BF93EF93FF933F
:1001B0008091310187FF05C0109295001092940044
:1001C0001AC020913101332727FD309580913001ED
:1001D00090E0281739077CF480913101992787FD39
:1001E0009095FC01EE0FFF1FE80FF91FEE5CFE4F2C
:1001F000808186FD15C0809131018F5F8093310130
:1002000020913101332727FD30958091300190E016
:1002100028173907BCF4809131018C305CF112C091
:1002200080913101992787FD9095FC01EE0FFF1F0A
:10023000E80FF91FEE5CFE4F808160E08F730E9433
:100240003D05D9CF8091940090919500049680341B
:100250009C4918F480E49CE905C080919400909139
:100260009500049690939900809398008FEF809367
:10027000310138C080919400909195002091310116
:10028000332727FD3095F901EE0FFF1FE20FF31F13
:10029000EE5CFE4F21813281820F931F9093990073
:1002A0008093980080913101992787FD9095FC01FA
:1002B000EE0FFF1FE80FF91FEE5CFE4F808186FFF7
:1002C00011C080913101992787FD9095FC01EE0FB7
:1002D000FF1FE80FF91FEE5CFE4F808161E08F7316
:1002E0000E943D05FF91EF91BF91AF919F918F913A
:1002F0007F916F915F914F913F912F910F900BBE26
:100300000F900FBE0F901F901895209130012C3048
:10031000A0F431E0320F30933001FC012283822FB0
:1003200090E0FC01EE0FFF1FE80FF91FEE5CFE4F9F
:1003300088EB9BE09283818308952FEFFC01228359
:100340000895FC011582609356011092580108959A
:100350001F920F920FB60F9211240BB60F922F938C
:100360003F934F935F936F937F938F939F93AF933D
:10037000BF93EF93FF93809156010E9470052091E7
:10038000590130915A012F5F3F4F30935A0120930A
:10039000590190912302943618F095E090935701FB
:1003A000909157019330B9F018F4923039F057C05A
:1003B000943059F1953009F44CC051C081114FC0AF
:1003C0002091590130915A012436310508F443C077
:1003D000109223021CC0813009F041C0E091230239
:1003E00091E09E0F90932302F0E02091590130910B
:1003F0005A01EE0FFF1FEA5AFE4F368325831092F3
:100400005A011092590194E021C0811117C0E09166
:10041000230291E09E0F90932302F0E02091590176
:1004200030915A01EE0FFF1FEA5AFE4F36832583A3
:1004300010925A011092590193E008C0209159017D
:1004400030915A012536310550F095E090935701CF
:1004500006C0811104C010925A0110925901909166
:100460005801992329F0811102C02D9A01C02D98BD
:10047000FF91EF91BF91AF919F918F917F916F917C
:100480005F914F913F912F910F900BBE0F900FBE38
:100490000F901F901895FF920F931F93CF93DF93A8
:1004A000FC01C62FD42FF22E832F008311821282DB
:1004B00013821482158216821782108611860DEC23
:1004C0001CEC2CEC3DE30287138724873587668775
:1004D0007787408B518BF28A838B61E08C2F0E944F
:1004E000C00461E08D2F0E94C00461E08F2D0E9446
:1004F000C00460E08C2F0E943D0560E08D2F0E94BB
:100500003D0560E08F2DDF91CF911F910F91FF90FE
:100510000C943D050F9380E090E0A8ECB2EC809342
:10052000A8029093A902A093AA02B093AB026EE036
:1005300070E082EA92E00E94A1018DE992E00E94BF
:10054000850188E992E00E9485011092970210923D
:100550009602109293021092920221E030E03093C2
:100560009502209394023093700220936F0265E00D
:10057000609371024FEF5FEF5093910240939002AE
:100580008DE292EBA6E6B1E480937202909373023F
:10059000A0937402B093750284E299EBACEDBFE3D3
:1005A0008093760290937702A0937802B0937902B9
:1005B00080E090E0A0EAB1E480937A0290937B021D
:1005C000A0937C02B0937D0284EB98ECA1E9B1E4A6
:1005D00080937E0290937F02A0938002B093810269
:1005E00083E49CE1ADEAB0E48093820290938302BD
:1005F000A0938402B093850280E090E0ACE8B2E47E
:100600008093860290938702A0938802B093890218
:100610008EEF91E090938B0280938A0289EB90E0B9
:1006200090938D0280938C0285E690E090938F02E8
:1006300080938E0230934D0220934C0260934E02C1
:1006400050936E0240936D0286EE9FE3A8ECB0E4F7
:1006500080934F0290935002A0935102B0935202A4
:100660008FE29DEDACEEBFE3809353029093540272
:10067000A0935502B093560280E090E0A0E2B1E46E
:100680008093570290935802A0935902B0935A0254
:100690008AEA92E8ACE0B1E480935B0290935C025A
:1006A000A0935D02B0935E028AE191E5A2ECB0E412
:1006B00080935F0290936002A0936102B093620204
:1006C00080E090E0ACE0B2E4809363029093640237
:1006D000A0936502B093660283E092E09093680273
:1006E0008093670287EA90E090936A0280936902A0
:1006F0008AE590E090936C0280936B0201E028E120
:1007000030E047E150E06BE170E088E392E00E9466
:100710004B022AE130E049E150E06CE170E084E214
:1007200092E00E944B020F91089540E052EC61E08C
:1007300070E08FEB92E00E949F0640E052EC61E097
:1007400070E081E693E00E949F0680E00E949E0494
:100750000E943D0980E190E090939E0280939D026B
:1007600081E190E0909399028093980208950C940F
:100770008A02089580E090E0A8ECB2EC8093B20287
:100780009093B302A093B402B093B5026BE171E011
:100790008CEA92E00C94FF098CEA92E00C942F0A08
:1007A000CF93DF9300D000D000D0CDB7DEB70E944A
:1007B000950344E650E060E070E08FEB92E00E9429
:1007C000EE088FEB92E00E94260718161906CCF768
:1007D0006FEB72E0CE0101960E942009BE016F5FAF
:1007E0007F4F8CEA92E00E94180ACE0101960E9487
:1007F0002F0A6CEA72E08FEB92E00E94DA08E1CFF8
:100800001F920F920FB60F9211242F933F938F9345
:100810009F93AF93BF938091BA029091BB02A09136
:10082000BC02B091BD023091BE020196A11DB11D66
:10083000232F2D5F2D3720F02D570196A11DB11DBF
:100840002093BE028093BA029093BB02A093BC0295
:10085000B093BD028091B6029091B702A091B80208
:10086000B091B9020196A11DB11D8093B60290937B
:10087000B702A093B802B093B902BF91AF919F9114
:100880008F913F912F910F900FBE0F901F90189551
:100890008FB7F8942091BA023091BB024091BC020C
:1008A0005091BD028FBFB901CA010895789484B5F3
:1008B000826084BD84B5816084BD85B5826085BD5C
:1008C00085B5816085BDEEE6F0E080818160808342
:1008D000E1E8F0E010828081826080838081816025
:1008E0008083E0E8F0E0808181608083E1EBF0E0EC
:1008F000808184608083E0EBF0E080818160808390
:10090000E1E9F0E080818260808380818160808382
:10091000E0E9F0E0808181608083EAE7F0E08081B7
:100920008460808380818260808380818160808315
:100930008081806880831092C1000895982F88314B
:1009400008F098519770809114018295880F880F54
:10095000807C892B80937C0080917A0080648093D6
:100960007A0080917A0086FDFCCF2091780040913A
:100970007900942F80E030E0282B392BC9010895AD
:10098000CF93DF93482F50E0CA0188539F4FFC015B
:10099000349146555F4FFA018491882369F190E0C4
:1009A000880F991FFC01E457FF4FA591B491FC01FA
:1009B000EA56FF4FC591D491662351F42FB7F894AE
:1009C0008C91932F909589238C93888189230BC0D8
:1009D000623061F42FB7F8948C91932F909589230E
:1009E0008C938881832B88832FBF06C09FB7F89490
:1009F0008C91832B8C939FBFDF91CF91089584308E
:100A0000C9F0853038F48230F1F0833078F48130E9
:100A100099F516C08730F9F0883018F4863061F502
:100A200016C08830F1F0893039F521C080918000FE
:100A30008F7703C0809180008F7D80938000089520
:100A400084B58F7702C084B58F7D84BD0895809171
:100A5000B0008F7703C08091B0008F7D8093B0008D
:100A60000895809190008F778093900008958091F1
:100A700090008F7D809390000895FF920F931F93B5
:100A8000F62E482F50E0CA018A519F4FFC01249155
:100A9000CA0188539F4FFC01149146555F4FFA01DC
:100AA00004910023C9F0222319F0822F0E94FF0431
:100AB000E02FF0E0EE0FFF1FEA56FF4FA591B49133
:100AC0009FB7F894FF2021F48C911095812302C0E8
:100AD0008C91812B8C939FBF1F910F91FF90089554
:100AE0000F931F93482F50E0CA018A519F4FFC017A
:100AF0002491CA0188539F4FFC01049146555F4FD2
:100B0000FA011491112319F420E030E015C02223DA
:100B100019F0822F0E94FF04812F90E0880F991F07
:100B200080569F4FFC01A591B4918C9120E030E05C
:100B3000802311F021E030E0C9011F910F91089549
:100B400008951F920F920FB60F920BB60F921124B9
:100B50002F933F934F938F939F93EF93FF938091A6
:100B6000C00082FD19C04091C6008091DD02282F8F
:100B700030E02F5F3F4F2F7330708091DE0290E0A6
:100B80002817390759F0E091DD02F0E0E154FD4FFC
:100B900042A32093DD0202C08091C600FF91EF9135
:100BA0009F918F914F913F912F910F900BBE0F907E
:100BB0000FBE0F901F90189508951F920F920FB6B9
:100BC0000F920BB60F9211242F933F934F938F9355
:100BD0009F93EF93FF938091C80082FD19C04091CD
:100BE000CE0080917F03282F30E02F5F3F4F2F737F
:100BF00030708091800390E02817390759F0E09118
:100C00007F03F0E0EF59FC4F42A320937F0302C023
:100C10008091CE00FF91EF919F918F914F913F91E5
:100C20002F910F900BBE0F900FBE0F901F90189535
:100C30008091DD022091DE0290E0805C9F4F821B5C
:100C400091098F739070892B11F00E94A0058091FB
:100C50007F032091800390E0805C9F4F821B91096D
:100C60008F739070892B11F00E94DC0508951F92FC
:100C70000F920FB60F920BB60F9211242F938F93F2
:100C80009F93EF93FF939091DF028091E00298177A
:100C900031F48091C1008F7D8093C10010C0E0913C
:100CA000E002F0E0EF5DFC4F20818091E00290E0F7
:100CB00001968F7390708093E0022093C600FF919D
:100CC000EF919F918F912F910F900BBE0F900FBEC0
:100CD0000F901F9018951F920F920FB60F920BB6A0
:100CE0000F9211242F938F939F93EF93FF939091E3
:100CF000810380918203981731F48091C9008F7D20
:100D00008093C90010C0E0918203F0E0ED53FC4FE6
:100D100020818091820390E001968F739070809380
:100D200082032093CE00FF91EF919F918F912F919D
:100D30000F900BBE0F900FBE0F901F901895AF92A3
:100D4000BF92DF92EF92FF920F931F93CF93DF93A7
:100D5000EC017A018B01DD24403081EE580780E000
:100D6000680780E0780711F0DD24D39491E0A92E84
:100D7000B12CE889F989DD2069F0C5010C8C02C02D
:100D8000880F991F0A94E2F7808360E079E08DE391
:100D900090E005C0108260E874E88EE190E0A80160
:100DA00097010E944B0C21503040404050405695D6
:100DB00047953795279580E12030380720F0DD20D2
:100DC00011F0DD24D6CFEC85FD853083EE85FF85DF
:100DD00020831D8EEA89FB89408121E030E0C90132
:100DE000088C02C0880F991F0A94E2F7482B4083B1
:100DF000EA89FB894081C901098C02C0880F991FCB
:100E00000A94E2F7482B4083EA89FB894081C901B3
:100E10000A8C02C0880F991F0A94E2F7482B40837E
:100E2000EA89FB8980810B8C02C0220F331F0A9450
:100E3000E2F7209528232083DF91CF911F910F9116
:100E4000FF90EF90DF90BF90AF900895FC01268D4A
:100E5000878D30E0205C3F4F281B31092F733070A5
:100E6000C9010895FC01968D878D981719F42FEF0D
:100E70003FEF06C0878DE80FF11D82A1282F30E0DB
:100E8000C9010895DC015E969C915E975F968C91F6
:100E90005F97981719F42FEF3FEF10C05F968C9172
:100EA0005F97FD01E80FF11D92A15F968C915F970E
:100EB0008F5F8F735F968C93292F30E0C90108955F
:100EC000DC015D968C915D97882339F05096ED9109
:100ED000FC915197808186FFF9CF5D961C92089511
:100EE000DC0190968C919097282F30E02F5F3F4F38
:100EF0002F73307091968C91919790E02817390755
:100F0000C9F390968C919097FD01E80FF11DEE5971
:100F1000FF4F608390962C9390975296ED91FC91A1
:100F20005397208181E090E05B960C905B9702C024
:100F3000880F991F0A94E2F7282B208381E05D96A1
:100F40008C935D975096ED91FC91519780818064D0
:100F5000808381E090E008951F931092C202109266
:100F6000C10228EE33E040E050E02093C30230930A
:100F7000C4024093C5025093C60260E271E07093D0
:100F8000C0026093BF021092E0028091E002809361
:100F9000DF021092DE028091DE028093DD0285EC9A
:100FA00090E09093CC028093CB0284EC90E09093FD
:100FB000CE028093CD0280EC90E09093D00280939B
:100FC000CF0281EC90E09093D2028093D10282EC28
:100FD00090E09093D4028093D30286EC90E09093BB
:100FE000D6028093D50214E01093D702B3E0B093F9
:100FF000D802A7E0A093D902F5E0F093DA02E1E08D
:10100000E093DB0210926403109263032093650364
:1010100030936603409367035093680370936203B1
:101020006093610310928203809182038093810315
:10103000109280038091800380937F038DEC90E079
:1010400090936E0380936D038CEC90E0909370030B
:1010500080936F0388EC90E0909372038093710308
:1010600089EC90E090937403809373038AEC90E092
:1010700090937603809375038EEC90E090937803C1
:101080008093770310937903B0937A03A0937B0343
:10109000F0937C03E0937D031F910895CF93DF933A
:1010A0000E9456040E94D003C8E1D6E00E94B90312
:1010B0002097E1F30E941806F9CFCF92DF92EF92CA
:1010C000FF920F931F93CF93DF937C016B018A01F3
:1010D000C0E0D0E00FC0D6016D916D01D701ED9158
:1010E000FC910190F081E02DC7010995C80FD91F2F
:1010F000015010400115110571F7CE01DF91CF911C
:101100001F910F91FF90EF90DF90CF900895EF9295
:10111000FF920F931F938C01DC01ED91FC910190E4
:10112000F081E02D6DE009957C01D801ED91FC91F5
:101130000190F081E02DC8016AE009959C012E0D17
:101140003F1DC9011F910F91FF90EF900895AF923D
:10115000BF92CF92DF92EF92FF920F931F93CF93A4
:10116000DF935C016B01EE24FF24C0E0D0E010C0EF
:10117000D501ED91FC9100811181C601BE010E9453
:101180004509682FC501F8010995E80EF91E219659
:10119000F60184819581C817D90750F3C701DF9103
:1011A000CF911F910F91FF90EF90DF90CF90BF9064
:1011B000AF900895EF92FF920F931F937C010E94CE
:1011C000A7088C01C7010E9487089C01200F311FCE
:1011D000C9011F910F91FF90EF900895FC01448386
:1011E0005583668377830895CF93DF93EC010E9444
:1011F0004804688779878A879B87E881F981068018
:10120000F781E02DCE0109959C0197FF15C00E9442
:101210004804288539854A855B85621B730B840BDE
:10122000950B2C813D814E815F8162177307840786
:10123000950718F32FEF3FEFC901DF91CF91089584
:101240000F931F93CF93DF93182F092FEB016EE0BD
:1012500071E00E94FF0904C0812F902F0E94B909FC
:10126000CE010E94F408BC0197FFF6CF812F902F8A
:10127000DF91CF911F910F910895009729F0BC0144
:1012800080E090E00E94FC0C0895FC01848195812F
:101290006817790748F40190F081E02D309721F02C
:1012A000E60FF71F8081089580E008950F931F9344
:1012B000CF93DF93EC018B016F5F7F4F8881998122
:1012C0000E946A0B009711F480E005C0998388831F
:1012D0001B830A8381E0DF91CF911F910F910895C5
:1012E000CF93DF93EC0188819981892B29F08A8142
:1012F0009B818617970760F4CE010E9456098823C8
:1013000041F08C819D81892B19F4E881F98110824B
:1013100081E0DF91CF910895EF92FF920F931F9399
:10132000CF93DF93EC017B016C817D81E114F104AB
:10133000C1F04115510599F08A01060F171FB80138
:101340000E947009882369F0888199812C813D81F0
:10135000820F931FB7010E940E0D1D830C8381E045
:1013600001C080E0DF91CF911F910F91FF90EF902E
:101370000895DF93CF9300D0CDB7DEB769831A828B
:10138000BE016F5F7F4F41E050E00E948C090F90DB
:101390000F90CF91DF910895CF93DF93EC01888177
:1013A0009981009711F00E94D20A198218821D8239
:1013B0001C821B821A82DF91CF910895EF92FF92D7
:1013C0000F931F93CF93DF93EC017B018A01BA0146
:1013D0000E947009882321F4CE010E94CC0907C025
:1013E0001D830C8388819981B7010E940E0DCE0167
:1013F000DF91CF911F910F91FF90EF900895CF93C0
:10140000DF93EC01198218821B821A821D821C82D2
:101410006115710551F0DB010D900020E9F711977E
:10142000A61BB70BAD010E94DE09DF91CF91089595
:10143000CF93DF93EC01FB018617970761F0608182
:1014400071816115710529F0448155810E94DE0981
:1014500002C00E94CC09CE01DF91CF910895FC011A
:10146000808191810E94D20A08950F931F93CF9398
:10147000DF93BC018230910510F462E070E0E091EE
:101480000504F091060440E050E0A0E0B0E024C084
:101490008081918186179707D0F08617970771F49E
:1014A00082819381109729F013969C938E931297C3
:1014B0002CC0909306048093050427C04115510564
:1014C00019F08417950718F48D01AC01EF01DF01C5
:1014D000828193819C01F9013097D1F64115510524
:1014E000F9F0CA01861B970B8430910580F48A813C
:1014F0009B810115110521F0F8019383828304C0BB
:101500009093060480930504FE01329645C0FE01C7
:10151000E80FF91F619371930297998388833CC008
:101520008091030490910404892B41F48091170168
:101530009091180190930404809303044091190141
:1015400050911A014115510541F44DB75EB7809194
:10155000150190911601481B590B209103043091FD
:10156000040424173507B0F4CA01821B930B8617B5
:10157000970780F0AB014E5F5F4F8417950750F0DF
:10158000420F531F5093040440930304F9016193E5
:10159000719302C0E0E0F0E0CF01DF91CF911F91A5
:1015A0000F910895CF93DF939C01009709F48FC0AA
:1015B000EC0122971B821A82609105047091060447
:1015C0006115710581F488819981820F931F2091A3
:1015D0000304309104042817390739F5D093040423
:1015E000C093030474C0DB0140E050E0AC17BD07BA
:1015F00008F1BB83AA83FE0121913191E20FF31F11
:10160000AE17BF0779F48D919C911197280F391F60
:101610002E5F3F4F3983288312968D919C911397AB
:101620009B838A834115510571F4D0930604C093BE
:1016300005044DC012968D919C911397AD010097B2
:1016400011F0DC01D3CFDA011396DC93CE9312971D
:10165000FA0121913191E20FF31FCE17DF0769F4F0
:1016600088819981280F391F2E5F3F4FFA013183FE
:1016700020838A819B8193838283E0E0F0E0DB0119
:1016800012968D919C911397009719F0BC01FD0162
:10169000F6CFAB014E5F5F4FDB018D919C91840FC4
:1016A000951F20910304309104042817390779F419
:1016B000309729F4109206041092050402C0138298
:1016C0001282425050405093040440930304DF912F
:1016D000CF9108956F927F928F929F92AF92BF9217
:1016E000CF92DF92EF92FF920F931F93CF93DF93EE
:1016F0008C01009729F4CB010E94350A8C01BBC0F4
:101700008EEFE82E8FEFF82EE00EF11E4801860EC8
:10171000971E8E149F0408F4ACC0D7014D915C91C4
:10172000119746175707B8F04530510508F4A3C084
:10173000CA0104978617970708F49DC0425050408D
:10174000461B570BF401419351936D937C93CF014A
:101750000E94D20A90C05B01A41AB50A3801640E37
:10176000751EA0910504B0910604E0E0F0E0CC24E1
:10177000DD2447C0A615B705A9F5CD91DC911197D9
:10178000CE0102968A159B0568F1CE018A199B0944
:10179000029612962C91129713963C91059758F049
:1017A000F40122833383CA19DB09D183C083D701B3
:1017B0006D937C9309C04E5F5F4F4C0F5D1FF70127
:1017C00051834083C901FC01C114D10431F0D60119
:1017D0001396FC93EE9312974EC0F0930604E09399
:1017E000050449C08D919C911197E817F90708F4F9
:1017F000FC016D0112968C91129713969C919C019D
:10180000D901109709F0B6CF809103049091040498
:1018100086159705E9F4E617F707D0F4209119012A
:1018200030911A012115310541F42DB73EB7809151
:10183000150190911601281B390B82169306C8F4E6
:101840009092040480920304F7017183608313C0B3
:10185000CB010E94350AEC01009759F0D7014D9158
:101860005C91B8010E94050DC8010E94D20A8E0148
:1018700002C000E010E0C801DF91CF911F910F91ED
:10188000FF90EF90DF90CF90BF90AF909F908F90A0
:101890007F906F900895A1E21A2EAA1BBB1BFD0139
:1018A0000DC0AA1FBB1FEE1FFF1FA217B307E4073F
:1018B000F50720F0A21BB30BE40BF50B661F771F97
:1018C000881F991F1A9469F7609570958095909577
:1018D0009B01AC01BD01CF010895052E97FB1EF4BD
:1018E00000940E94840C57FD07D00E944B0C07FC0B
:1018F00003D04EF40C94840C50954095309521956E
:101900003F4F4F4F5F4F089590958095709561952B
:101910007F4F8F4F9F4F08950E949B0CA59F900D66
:10192000B49F900DA49F800D911D112408950790E0
:10193000F691E02D0994A29FB001B39FC001A39F2F
:10194000700D811D1124911DB29F700D811D1124F8
:10195000911D08958F929F92AF92BF92CF92DF9286
:10196000EF92FF92CF93DF93EC01688179818A81B6
:101970009B81611571058105910521F464E279ED82
:101980008BE597E02DE133EF41E050E00E946D0CD4
:1019900049015A019B01AC01A7EAB1E40E948C0CF9
:1019A0006B017C01ACEEB4EFA50194010E94180D0F
:1019B000C60ED71EE81EF91EF7FE06C081E0C81A43
:1019C000D108E10880E8F80AC882D982EA82FB825D
:1019D000C701B6019F77DF91CF91FF90EF90DF9025
:1019E000CF90BF90AF909F908F9008950C94AA0CC9
:1019F00080E191E00C94AA0C6093100170931101A6
:101A000080931201909313010895FB01DC0102C041
:101A100001900D9241505040D8F70895FB01DC0130
:101A200001900D920020E1F70895B7FF0C948C0C03
:101A30000E948C0C821B930B089511E0CCE0D1E046
:101A400000E006C022970109FE010BBF0E94970C1F
:0E1A5000CE30D10780E00807A9F7F894FFCF49
:101A5E006E616E00696E66006F7666002E00000085
:101A6E0001000000018000070400000000000000DB
:0C1A7E0070075D0826074207320760076A
:00000001FF
