:100000000C9488000C94B7000C94B7000C94B700C3
:100010000C94B7000C94B7000C94B7000C94B70084
:100020000C94B7000C944C020C94B7000C94B700DD
:100030000C94B7000C94B7000C94B7000C94B70064
:100040000C94B7000C94B7000C947B050C94B7008B
:100050000C949A070C9430080C94B7000C94B700D9
:100060000C94B7000C94B7000C94B7000C94B70034
:100070000C94D6070C9464080C94B7000C94B70049
:100080000C9469010C94B7000C94B7000000210097
:10009000240027002A0000002200250028002B0051
:1000A00000002000230026002900040403030303AA
:1000B0000303030402020202010101010101010123
:1000C00004020202020404030102010204081020D7
:1000D0004040102040800102040810204080800130
:1000E0000208042010800000000000000000000052
:1000F0000000000000000000000000000000000000
:10010000000304005C015B04B904D304A509F104F5
:1001100011241FBECFEFD0E4DEBFCDBF11E0A0E0C1
:10012000B1E0E8E2F4E200E00BBF02C007900D92FC
:10013000A236B107D9F724E0A2E6B1E001C01D92D2
:10014000AD34B207E1F711E0CEE0D1E000E006C047
:1001500022970109FE010BBF0E942C11C430D10768
:1001600080E00807A9F70E94470A0C9402120C9439
:1001700000008F929F92AF92BF92CF92DF92EF9248
:10018000FF920F931F93CF93DF93EC015A018B01E2
:10019000C0906201D0906301E0906401F09065012D
:1001A000A7019601B501C8010E942A0F87FD13C05F
:1001B00020E030E048EC52E4B501C8010E9479101B
:1001C00018163CF4C12CD12C88ECE82E82E4F82ED1
:1001D00002C0650178018A819B81AC81BD818E83DB
:1001E0009F83A887B987CA82DB82EC82FD828881DF
:1001F000811104C0F7FAF094F7F8F09420E030E0B1
:1002000048EC52E4C701B6010E942E0F20E030E016
:100210004FE753E40E947D106B017C018A849B842C
:10022000AC84BD84A50194010E94791018165CF479
:1002300061E088890E94360760E08A890E9436075B
:10024000C701B60114C0A50194015058C701B601F9
:100250000E942A0F87FF11C060E088890E9436073C
:1002600061E08A890E943607C701B60190580E9452
:10027000960F8E850E943B0611C060E070E08E856F
:100280000E943B0660E08E850E94360760E0888908
:100290000E94360760E08A890E9436071982DF9142
:1002A000CF911F910F91FF90EF90DF90CF90BF9073
:1002B000AF909F908F90089580E090E0A8ECB2EC12
:1002C0008093620190936301A0936401B0936501F0
:1002D00008951F920F920FB60F9211240BB60F9232
:1002E0002F933F934F935F936F937F938F939F933E
:1002F000AF93BF93EF93FF938091670187FF05C092
:1003000010929500109294001AC020916701332733
:1003100027FD30958091660190E0281739077CF41D
:1003200080916701992787FD9095FC01EE0FFF1FD3
:10033000E80FF91FE859FE4F808186FD15C08091B6
:1003400067018F5F8093670120916701332727FD45
:1003500030958091660190E028173907BCF48091B0
:1003600067018C305CF112C080916701992787FD8D
:100370009095FC01EE0FFF1FE80FF91FE859FE4FA3
:10038000808160E08F730E943607D9CF80919400FE
:1003900090919500049680349C4918F480E49CE97F
:1003A00005C08091940090919500049690939900D7
:1003B000809398008FEF8093670138C080919400FC
:1003C0009091950020916701332727FD3095F90121
:1003D000EE0FFF1FE20FF31FE859FE4F218132811C
:1003E000820F931F909399008093980080916701EA
:1003F000992787FD9095FC01EE0FFF1FE80FF91F6D
:10040000E859FE4F808186FF11C0809167019927CE
:1004100087FD9095FC01EE0FFF1FE80FF91FE859CB
:10042000FE4F808161E08F730E943607FF91EF914C
:10043000BF91AF919F918F917F916F915F914F91FC
:100440003F912F910F900BBE0F900FBE0F901F90FA
:100450001895209166012C30A0F431E0320F3093D2
:100460006601FC012283822F90E0FC01EE0FFF1F4A
:10047000E80FF91FE859FE4F88EB9BE092838183D8
:1004800008952FEFFC0122830895FC0115826093EB
:100490008C0110928E0108951F920F920FB60F9249
:1004A00011240BB60F922F933F934F935F936F934B
:1004B0007F938F939F93AF93BF93EF93FF9380911D
:1004C0008C010E94690720918F01309190012F5F6C
:1004D0003F4F3093900120938F01909159029436B1
:1004E00018F095E090938D0190918D019330B9F0C3
:1004F00018F4923039F057C0943059F1953009F41E
:100500004CC051C081114FC020918F01309190019A
:100510002436310508F443C0109259021CC08130C2
:1005200009F041C0E091590291E09E0F9093590269
:10053000F0E020918F0130919001EE0FFF1FE45702
:10054000FE4F368325831092900110928F0194E024
:1005500021C0811117C0E091590291E09E0F909344
:100560005902F0E020918F0130919001EE0FFF1FB2
:10057000E457FE4F368325831092900110928F012D
:1005800093E008C020918F0130919001253631050C
:1005900050F095E090938D0106C0811104C0109237
:1005A000900110928F0190918E01992329F0811171
:1005B00002C02D9A01C02D98FF91EF91BF91AF918C
:1005C0009F918F917F916F915F914F913F912F916B
:1005D0000F900BBE0F900FBE0F901F901895FF92BB
:1005E0000F931F93CF93DF93FC01C62FD42FF22ECE
:1005F000832F008311821282138214821582168245
:100600001782108611860DEC1CEC2CEC3DE3028762
:1006100013872487358766877787408B518BF28ACB
:10062000838B61E08C2F0E94B90661E08D2F0E94C0
:10063000B90661E08F2D0E94B90660E08C2F0E9400
:10064000360760E08D2F0E94360760E08F2DDF9126
:10065000CF911F910F91FF900C9436070F9380E07C
:1006600090E0A8ECB2EC8093DE029093DF02A093BE
:10067000E002B093E1026EE070E088ED92E00E944B
:10068000450283ED92E00E9429028EEC92E00E94E6
:1006900029021092CD021092CC021092C90210923F
:1006A000C80221E030E03093CB022093CA0230939D
:1006B000A6022093A50265E06093A7024FEF5FEFCB
:1006C0005093C7024093C6028DE292EBA6E6B1E4D6
:1006D0008093A8029093A902A093AA02B093AB02C0
:1006E00084E299EBACEDBFE38093AC029093AD0252
:1006F000A093AE02B093AF0280E090E0A0EAB1E434
:100700008093B0029093B102A093B202B093B3026F
:1007100084EB98ECA1E9B1E48093B4029093B50224
:10072000A093B602B093B70283E49CE1ADEAB0E4D3
:100730008093B8029093B902A093BA02B093BB021F
:1007400080E090E0ACE8B2E48093BC029093BD02FC
:10075000A093BE02B093BF028EEF91E09093C102CE
:100760008093C00289EB90E09093C3028093C20211
:1007700085E690E09093C5028093C4023093830293
:1007800020938202609384025093A4024093A302B8
:1007900086EE9FE3A8ECB0E48093850290938602F6
:1007A000A0938702B09388028FE29DEDACEEBFE389
:1007B0008093890290938A02A0938B02B0938C025B
:1007C00080E090E0A0E2B1E480938D0290938E02ED
:1007D000A0938F02B09390028AEA92E8ACE0B1E471
:1007E0008093910290939202A0939302B09394020B
:1007F0008AE191E5A2ECB0E4809395029093960291
:10080000A0939702B093980280E090E0ACE0B2E44D
:100810008093990290939A02A0939B02B0939C02BA
:1008200083E092E090939E0280939D0287EA90E09D
:100830009093A00280939F028AE590E09093A20299
:100840008093A10201E028E130E047E150E06BE154
:1008500070E08EE692E00E94EF022AE130E049E18A
:1008600050E06CE170E08AE592E00E94EF020F91A7
:10087000089540E052EC61E070E085E093E00E9472
:10088000980840E052EC61E070E087EA93E00E9453
:10089000980880E00E9419060E94650B80E190E0B4
:1008A0009093D4028093D30281E190E09093CF02A1
:1008B0008093CE0208950C942E03EF92FF920F9333
:1008C0001F93CF93DF93CDB7DEB72C970FB6F89475
:1008D000DEBF0FBECDBF8C0160E20E94AD0B7C017C
:1008E0008FEFE816F806B1F1970140E050E0B8014B
:1008F000CE0107960E94B00CF80124813581A70132
:100900004F5F5F4FB801CE0101960E94B00CCE013F
:1009100007960E947E0B0E94C90FAB01BC018EE6B8
:1009200092E00E94B900CE0101960E947E0B0E94C7
:10093000C90FAB01BC018AE592E00E94B900CE016B
:1009400001960E940E0DCE0107960E940E0D80E0CA
:1009500090E002C08FEF9FEF2C960FB6F894DEBFA9
:100960000FBECDBFDF91CF911F910F91FF90EF9000
:10097000089580E090E0A8ECB2EC8093E2029093BE
:10098000E302A093E402B093E502089586EE92E0BC
:100990000E940E0D8CEE92E00E940E0D82EF92E00E
:1009A0000C940E0D089580E090E0A8ECB2EC8093DA
:1009B000F8029093F902A093FA02B093FB026AE264
:1009C00071E082EF92E00E947E0C6AE271E08CEEB0
:1009D00092E00E947E0C6AE271E086EE92E00C9456
:1009E0007E0C0C94C604CF93DF9300D000D000D0CF
:1009F000CDB7DEB70E94390444E650E060E070E015
:100A000085E093E00E94160B85E093E00E941F09A9
:100A100018161906CCF765E073E0CE0101960E9426
:100A2000480BBE016F5F7F4F82EF92E00E94F70C90
:100A3000CE0101960E940E0D60E282EF92E00E94CC
:100A4000AD0B8C010F3F8FEF1807F1F2980140E0DA
:100A500050E062EF72E0CE0101960E94B00CBE0140
:100A60006F5F7F4F8CEE92E00E94F70CCE010196F3
:100A70000E940E0D2091F6023091F702A8014F5FFF
:100A80005F4F62EF72E0CE0101960E94B00CBE0192
:100A90006F5F7F4F86EE92E00E94F70CCE010196C9
:100AA0000E940E0D65E271E08CEE92E00E94B20BA6
:100AB0008823D1F06BE171E085E093E00E94BC0AED
:100AC00086EE92E00E945D04892B09F49DCF6BE2D3
:100AD00071E085E093E00E94BC0A62EF72E085E07D
:100AE00093E00E94020B90CF6CE371E085E093E00D
:100AF0000E94BC0A89CF1F920F920FB60F92112449
:100B00002F933F938F939F93AF93BF938091000355
:100B100090910103A0910203B0910303309104036B
:100B20000196A11DB11D232F2D5F2D3720F02D57CC
:100B30000196A11DB11D209304038093000390939F
:100B40000103A0930203B09303038091FC029091F0
:100B5000FD02A091FE02B091FF020196A11DB11D00
:100B60008093FC029093FD02A093FE02B093FF02DB
:100B7000BF91AF919F918F913F912F910F900FBE99
:100B80000F901F9018958FB7F89420910003309123
:100B9000010340910203509103038FBFB901CA01C1
:100BA0000895789484B5826084BD84B5816084BDE5
:100BB00085B5826085BD85B5816085BDEEE6F0E0D6
:100BC000808181608083E1E8F0E010828081826032
:100BD0008083808181608083E0E8F0E080818160B3
:100BE0008083E1EBF0E0808184608083E0EBF0E0E3
:100BF000808181608083E1E9F0E080818260808390
:100C0000808181608083E0E9F0E080818160808381
:100C1000EAE7F0E080818460808380818260808365
:100C20008081816080838081806880831092C10090
:100C30000895982F883108F0985197708091140189
:100C40008295880F880F807C892B80937C0080910F
:100C50007A00806480937A0080917A0086FDFCCFD0
:100C60002091780040917900942F80E030E0282B8B
:100C7000392BC90108951F93CF93DF93182FEB01F0
:100C800061E00E94B906209709F468C0CF3FD10502
:100C900009F467C0E12FF0E0EA51FF4F84918430FE
:100CA00061F1853040F48230C9F08330E0F4813066
:100CB00009F051C00EC0873091F1883020F48630A1
:100CC00009F049C024C0883091F1893009F043C04F
:100CD00038C084B5806884BDC7BD47C084B5806214
:100CE00084BDC8BD42C08091800080688093800030
:100CF000D0938900C093880038C0809180008062C2
:100D000080938000D0938B00C0938A002EC0809186
:100D1000B00080688093B000C093B30026C080917B
:100D2000B00080628093B000C093B4001EC0809178
:100D30009000806880939000D0939900C0939800B1
:100D400014C080919000806280939000D0939B00AB
:100D5000C0939A000AC0C038D1051CF4812F60E00E
:100D600002C0812F61E00E943607DF91CF911F9171
:100D70000895CF93DF93482F50E0CA0188539F4FC7
:100D8000FC01349146555F4FFA018491882369F143
:100D900090E0880F991FFC01E457FF4FA591B49193
:100DA000FC01EA56FF4FC591D491662351F42FB749
:100DB000F8948C91932F909589238C938881892323
:100DC0000BC0623061F42FB7F8948C91932F9095FB
:100DD00089238C938881832B88832FBF06C09FB77C
:100DE000F8948C91832B8C939FBFDF91CF910895C2
:100DF0008430C9F0853038F48230F1F0833078F4F3
:100E0000813099F516C08730F9F0883018F48630B3
:100E100061F516C08830F1F0893039F521C0809134
:100E200080008F7703C0809180008F7D8093800049
:100E3000089584B58F7702C084B58F7D84BD0895F1
:100E40008091B0008F7703C08091B0008F7D809338
:100E5000B0000895809190008F778093900008955E
:100E6000809190008F7D809390000895FF920F9362
:100E70001F93F62E482F50E0CA018A519F4FFC0164
:100E80002491CA0188539F4FFC01149146555F4F2E
:100E9000FA0104910023C9F0222319F0822F0E9445
:100EA000F806E02FF0E0EE0FFF1FEA56FF4FA59186
:100EB000B4919FB7F894FF2021F48C911095812371
:100EC00002C08C91812B8C939FBF1F910F91FF903B
:100ED00008950F931F93482F50E0CA018A519F4FE6
:100EE000FC012491CA0188539F4FFC01049146558F
:100EF0005F4FFA011491112319F420E030E015C07E
:100F0000222319F0822F0E94F806812F90E0880F8B
:100F1000991F80569F4FFC01A591B4918C9120E0C0
:100F200030E0802311F021E030E0C9011F910F91E2
:100F3000089508951F920F920FB60F920BB60F925D
:100F400011242F933F934F938F939F93EF93FF938E
:100F50008091C00082FD19C04091C600809123039A
:100F6000282F30E02F5F3F4F2F7330708091240384
:100F700090E02817390759F0E0912303F0E0EB5F88
:100F8000FC4F42A32093230302C08091C600FF912F
:100F9000EF919F918F914F913F912F910F900BBEA9
:100FA0000F900FBE0F901F90189508951F920F92EB
:100FB0000FB60F920BB60F9211242F933F934F93BE
:100FC0008F939F93EF93FF938091C80082FD19C088
:100FD0004091CE008091C503282F30E02F5F3F4F16
:100FE0002F7330708091C60390E02817390759F0AD
:100FF000E091C503F0E0E955FC4F42A32093C503FF
:1010000002C08091CE00FF91EF919F918F914F91FF
:101010003F912F910F900BBE0F900FBE0F901F901E
:101020001895809123032091240390E0805C9F4FCA
:10103000821B91098F739070892B11F00E94990780
:101040008091C5032091C60390E0805C9F4F821B76
:1010500091098F739070892B11F00E94D507089524
:101060001F920F920FB60F920BB60F9211242F936F
:101070008F939F93EF93FF93909125038091260385
:10108000981731F48091C1008F7D8093C10010C00A
:10109000E0912603F0E0E959FC4F2081809126037E
:1010A00090E001968F739070809326032093C60082
:1010B000FF91EF919F918F912F910F900BBE0F9009
:1010C0000FBE0F901F9018951F920F920FB60F92A0
:1010D0000BB60F9211242F938F939F93EF93FF934F
:1010E0009091C7038091C803981731F48091C9008B
:1010F0008F7D8093C90010C0E091C803F0E0E75FE6
:10110000FB4F20818091C80390E001968F7390700F
:101110008093C8032093CE00FF91EF919F918F9110
:101120002F910F900BBE0F900FBE0F901F90189530
:10113000AF92BF92DF92EF92FF920F931F93CF93E4
:10114000DF93EC017A018B01DD24403081EE5807FA
:1011500080E0680780E0780711F0DD24D39491E007
:10116000A92EB12CE889F989DD2069F0C5010C8C24
:1011700002C0880F991F0A94E2F7808360E079E04B
:101180008DE390E005C0108260E874E88EE190E0A5
:10119000A80197010E94E01021503040404050408B
:1011A000569547953795279580E12030380720F0F0
:1011B000DD2011F0DD24D6CFEC85FD853083EE8572
:1011C000FF8520831D8EEA89FB89408121E030E084
:1011D000C901088C02C0880F991F0A94E2F7482BB6
:1011E0004083EA89FB894081C901098C02C0880FCC
:1011F000991F0A94E2F7482B4083EA89FB894081D2
:10120000C9010A8C02C0880F991F0A94E2F7482B83
:101210004083EA89FB8980810B8C02C0220F331F37
:101220000A94E2F7209528232083DF91CF911F9124
:101230000F91FF90EF90DF90BF90AF900895FC0169
:10124000268D878D30E0205C3F4F281B31092F739E
:101250003070C9010895FC01968D878D981719F497
:101260002FEF3FEF06C0878DE80FF11D82A1282FD9
:1012700030E0C9010895DC015E969C915E975F960F
:101280008C915F97981719F42FEF3FEF10C05F967E
:101290008C915F97FD01E80FF11D92A15F968C91F3
:1012A0005F978F5F8F735F968C93292F30E0C90112
:1012B0000895DC015D968C915D97882339F05096F6
:1012C000ED91FC915197808186FFF9CF5D961C923C
:1012D0000895DC0190968C919097282F30E02F5F35
:1012E0003F4F2F73307091968C91919790E0281713
:1012F0003907C9F390968C919097FD01E80FF11D85
:10130000EE59FF4F608390962C9390975296ED91F3
:10131000FC915397208181E090E05B960C905B9765
:1013200002C0880F991F0A94E2F7282B208381E0DE
:101330005D968C935D975096ED91FC9151978081CD
:101340008064808381E090E008951F9310920803E9
:101350001092070328EE33E040E050E020930903A9
:1013600030930A0340930B0350930C0366E571E03E
:101370007093060360930503109226038091260361
:1013800080932503109224038091240380932303E8
:1013900085EC90E0909312038093110384EC90E02D
:1013A000909314038093130380EC90E090931603C2
:1013B0008093150381EC90E09093180380931703BA
:1013C00082EC90E090931A038093190386EC90E0EE
:1013D00090931C0380931B0314E010931D03B3E050
:1013E000B0931E03A7E0A0931F03F5E0F093200342
:1013F000E1E0E09321031092AA031092A903209345
:10140000AB033093AC034093AD035093AE037093A2
:10141000A8036093A7031092C8038091C803809328
:10142000C7031092C6038091C6038093C5038DEC59
:1014300090E09093B4038093B3038CEC90E090938E
:10144000B6038093B50388EC90E09093B803809343
:10145000B70389EC90E09093BA038093B9038AECC8
:1014600090E09093BC038093BB038EEC90E090934C
:10147000BE038093BD031093BF03B093C003A0933A
:10148000C103F093C203E093C3031F910895CF9368
:10149000DF930E94D1050E94F304C1E1D8E00E94CD
:1014A000D2042097E1F30E941108F9CFCF92DF9286
:1014B000EF92FF920F931F93CF93DF937C016B0109
:1014C0008A01C0E0D0E00FC0D6016D916D01D70157
:1014D000ED91FC910190F081E02DC7010995C80FB5
:1014E000D91F015010400115110571F7CE01DF9190
:1014F000CF911F910F91FF90EF90DF90CF900895C3
:10150000EF92FF920F931F938C01DC01ED91FC9100
:101510000190F081E02D6DE009957C01D801ED91FD
:10152000FC910190F081E02DC8016AE009959C01D1
:101530002E0D3F1DC9011F910F91FF90EF9008954F
:10154000CF93DF93EC016115710519F420E030E0D1
:101550000FC0DB010D900020E9F71197A61BB70B18
:10156000E881F9810280F381E02DAD0109959C01AC
:10157000C901DF91CF910895EF92FF920F931F93CE
:101580007C010E94A00A8C01C7010E94800A080FFA
:10159000191FC8011F910F91FF90EF900895AF920E
:1015A000BF92CF92DF92EF92FF920F931F93CF9350
:1015B000DF935C016B01EE24FF24C0E0D0E010C09B
:1015C000D501ED91FC9100811181C601BE010E94FF
:1015D0006D0B682FC501F8010995E80EF91E2196DB
:1015E000F60184819581C817D90750F3C701DF91AF
:1015F000CF911F910F91FF90EF90DF90CF90BF9010
:10160000AF900895EF92FF920F931F937C010E9479
:10161000CF0A8C01C7010E94800A9C01200F311F54
:10162000C9011F910F91FF90EF900895FC01448331
:101630005583668377830895CF93DF93EC010E94EF
:10164000C305688779878A879B87E881F981068047
:10165000F781E02DCE0109959C0197FF15C00E94EE
:10166000C305288539854A855B85621B730B840B0E
:10167000950B2C813D814E815F8162177307840732
:10168000950718F32FEF3FEFC901DF91CF91089530
:101690000F931F93CF93DF93182F092FEB016EE069
:1016A00071E00E947E0C04C0812F902F0E94380CA4
:1016B000CE010E941C0BBC0197FFF6CF812F902F0B
:1016C000DF91CF911F910F910895009729F0BC01F0
:1016D00080E090E00E9491110895FC018481958141
:1016E0006817790748F40190F081E02D309721F0D8
:1016F000E60FF71F8081089580E00895FC01808146
:101700009181009729F420E030E040E050E004C0EF
:101710000E949A119B01AC01B901CA010895CF93AF
:10172000DF93FC01848195814817590768F4C081D3
:10173000D181772767FD7095CE01840F951F0E9498
:10174000CA119C01009719F42FEF3FEF02C02C1B28
:101750003D0BC901DF91CF91089540E050E00E9418
:101760008F0B0895DC01FB0114968D919C911597C8
:10177000892B31F461157105A9F090E0808108C0D2
:101780000D90BC91A02D6115710529F490E08C910C
:10179000882349F407C0CD010E94D5119C0190E037
:1017A000232B09F491E0892F08950F931F93CF9372
:1017B000DF93EC018B016F5F7F4F888199810E94DD
:1017C000490E009711F480E005C0998388831B833C
:1017D0000A8381E0DF91CF911F910F910895CF93FC
:1017E000DF93EC0188819981892B29F08A819B8183
:1017F0008617970760F4CE010E94D50B882341F02D
:101800008C819D81892B19F4E881F981108281E016
:10181000DF91CF910895EF92FF920F931F93CF9393
:10182000DF93EC017B016C817D81E114F104C1F057
:101830004115510599F08A01060F171FB8010E9442
:10184000EF0B882369F0888199812C813D81820F7B
:10185000931FB7010E94DE111D830C8381E001C03C
:1018600080E0DF91CF911F910F91FF90EF9008954D
:10187000DF93CF9300D0CDB7DEB769831A82BE0164
:101880006F5F7F4F41E050E00E940B0C0F900F9074
:10189000CF91DF910895CF93DF93EC0188819981F7
:1018A000009711F00E94B10D198218821D821C82CE
:1018B0001B821A82DF91CF910895EF92FF920F93CE
:1018C0001F93CF93DF93EC017B018A01BA010E9441
:1018D000EF0B882321F4CE010E944B0C07C01D831F
:1018E0000C8388819981B7010E94DE11CE01DF91BE
:1018F000CF911F910F91FF90EF900895CF93DF93B9
:10190000EC01198218821B821A821D821C826115C9
:10191000710551F0DB010D900020E9F71197A61B2E
:10192000B70BAD010E945D0CDF91CF9108950F932D
:101930001F93182F092F6115710559F0DB010D90C8
:101940000020E9F71197A61BB70BAD010E945D0CB3
:1019500002C00E944B0C812F902F1F910F91089570
:10196000BF92CF92DF92EF92FF920F931F93CF938C
:10197000DF93082FB92E6B017A01E901241735078F
:1019800010F4EA017901802F9B2D6FE071E00E9435
:101990007E0CD60114968D919C9115978E159F05FE
:1019A000D0F08C179D0708F4EC01D601ED91FC9165
:1019B0001197EC0FFD1F108110826D917C916E0DBF
:1019C0007F1D802F9B2D0E94970CD601ED91FC91DD
:1019D000EC0FFD1F1083802F9B2DDF91CF911F9166
:1019E0000F91FF90EF90DF90CF90BF900895CF932D
:1019F000DF93EC01FB018617970761F0608171812D
:101A00006115710529F0448155810E945D0C02C069
:101A10000E944B0CCE01DF91CF910895FC01808193
:101A200091810E94B10D08950F931F93CF93DF937F
:101A3000BC018230910510F462E070E0E0914B044B
:101A4000F0914C0440E050E0A0E0B0E024C0808180
:101A5000918186179707D0F08617970771F48281D6
:101A60009381109729F013969C938E9312972CC014
:101A700090934C0480934B0427C04115510519F0F5
:101A80008417950718F48D01AC01EF01DF01828105
:101A900093819C01F9013097D1F641155105F9F078
:101AA000CA01861B970B8430910580F48A819B8143
:101AB0000115110521F0F8019383828304C09093EE
:101AC0004C0480934B04FE01329645C0FE01E80FA2
:101AD000F91F619371930297998388833CC0809129
:101AE000490490914A04892B41F480911701909107
:101AF000180190934A048093490440911901509130
:101B00001A014115510541F44DB75EB78091150199
:101B100090911601481B590B2091490430914A04B9
:101B200024173507B0F4CA01821B930B8617970759
:101B300080F0AB014E5F5F4F8417950750F0420F66
:101B4000531F50934A0440934904F90161937193E0
:101B500002C0E0E0F0E0CF01DF91CF911F910F9143
:101B60000895CF93DF939C01009709F48FC0EC0197
:101B700022971B821A8260914B0470914C0461156C
:101B8000710581F488819981820F931F2091490406
:101B900030914A042817390739F5D0934A04C09385
:101BA000490474C0DB0140E050E0AC17BD0708F108
:101BB000BB83AA83FE0121913191E20FF31FAE177F
:101BC000BF0779F48D919C911197280F391F2E5FD3
:101BD0003F4F3983288312968D919C9113979B8355
:101BE0008A834115510571F4D0934C04C0934B0482
:101BF0004DC012968D919C911397AD01009711F0F5
:101C0000DC01D3CFDA011396DC93CE931297FA015D
:101C100021913191E20FF31FCE17DF0769F488811C
:101C20009981280F391F2E5F3F4FFA01318320839E
:101C30008A819B8193838283E0E0F0E0DB0112964E
:101C40008D919C911397009719F0BC01FD01F6CF7F
:101C5000AB014E5F5F4FDB018D919C91840F951F0F
:101C60002091490430914A042817390779F43097B4
:101C700029F410924C0410924B0402C01382128279
:101C80004250504050934A0440934904DF91CF9111
:101C900008956F927F928F929F92AF92BF92CF9250
:101CA000DF92EF92FF920F931F93CF93DF938C01FC
:101CB000009729F4CB010E94140D8C01BBC08EEF5C
:101CC000E82E8FEFF82EE00EF11E4801860E971ECB
:101CD0008E149F0408F4ACC0D7014D915C9111970C
:101CE00046175707B8F04530510508F4A3C0CA019C
:101CF00004978617970708F49DC042505040461B32
:101D0000570BF401419351936D937C93CF010E9443
:101D1000B10D90C05B01A41AB50A3801640E751E9E
:101D2000A0914B04B0914C04E0E0F0E0CC24DD2421
:101D300047C0A615B705A9F5CD91DC911197CE0145
:101D400002968A159B0568F1CE018A199B090296B5
:101D500012962C91129713963C91059758F0F40126
:101D600022833383CA19DB09D183C083D7016D93E2
:101D70007C9309C04E5F5F4F4C0F5D1FF70151838D
:101D80004083C901FC01C114D10431F0D60113967E
:101D9000FC93EE9312974EC0F0934C04E0934B04E7
:101DA00049C08D919C911197E817F90708F4FC013F
:101DB0006D0112968C91129713969C919C01D901FA
:101DC000109709F0B6CF8091490490914A04861586
:101DD0009705E9F4E617F707D0F42091190130913F
:101DE0001A012115310541F42DB73EB78091150137
:101DF00090911601281B390B82169306C8F4909215
:101E00004A0480924904F7017183608313C0CB01B7
:101E10000E94140DEC01009759F0D7014D915C918F
:101E2000B8010E94C111C8010E94B10D8E0102C00B
:101E300000E010E0C801DF91CF911F910F91FF905A
:101E4000EF90DF90CF90BF90AF909F908F907F905A
:101E50006F900895D9D008F481E008950CD00FC197
:101E600007D140F0FED030F021F45F3F19F0F0C010
:101E7000511139C1F3C014D198F39923C9F35523F3
:101E8000B1F3951B550BBB27AA276217730784076D
:101E900038F09F5F5F4F220F331F441FAA1FA9F323
:101EA00033D00E2E3AF0E0E830D091505040E69515
:101EB000001CCAF729D0FE2F27D0660F771F881F76
:101EC000BB1F261737074807AB07B0E809F0BB0B65
:101ED000802DBF01FF2793585F4F2AF09E3F510589
:101EE00068F0B6C000C15F3FECF3983EDCF3869526
:101EF00077956795B795F7959F5FC9F7880F911DFF
:101F00009695879597F90895E1E0660F771F881FEA
:101F1000BB1F621773078407BA0720F0621B730B9D
:101F2000840BBA0BEE1F88F7E095089504D06894EF
:101F3000B111D9C00895BCD088F09F5790F0B92F47
:101F40009927B751A0F0D1F0660F771F881F991F0E
:101F50001AF0BA95C9F712C0B13081F0C3D0B1E020
:101F60000895C0C0672F782F8827B85F39F0B93F30
:101F7000CCF3869577956795B395D9F73EF4909510
:101F80008095709561957F4F8F4F9F4F0895E8948E
:101F900009C097FB3EF490958095709561957F4FB1
:101FA0008F4F9F4F9923A9F0F92F96E9BB2793955F
:101FB000F695879577956795B795F111F8CFFAF46F
:101FC000BB0F11F460FF1BC06F5F7F4F8F4F9F4FA0
:101FD00016C0882311F096E911C0772321F09EE8FE
:101FE000872F762F05C0662371F096E8862F70E064
:101FF00060E02AF09A95660F771F881FDAF7880F3E
:102000009695879597F90895990F0008550FAA0B93
:10201000E0E8FEEF16161706E807F907C0F01216FB
:102020001306E407F50798F0621B730B840B950BFE
:1020300039F40A2661F0232B242B252B21F4089553
:102040000A2609F4A140A6958FEF811D811D0895F0
:1020500097F99F6780E870E060E008959FEF80EC5B
:10206000089500240A9416161706180609060895FE
:1020700000240A9412161306140605060895092E64
:102080000394000C11F4882352F0BB0F40F4BF2BD3
:1020900011F460FF04C06F5F7F4F8F4F9F4F089513
:1020A00057FD9058440F551F59F05F3F71F0479509
:1020B000880F97FB991F61F09F3F79F087950895EE
:1020C000121613061406551FF2CF4695F1DF08C00D
:1020D000161617061806991FF1CF8695710561052A
:1020E00008940895E894BB2766277727CB0197F9D2
:1020F00008958ADF08F48FEF08950BD0C0CFB1DFC9
:1021000028F0B6DF18F0952309F0A2CFA7CF11244D
:10211000EACFC6DFA0F3959FD1F3950F50E0551F8E
:10212000629FF001729FBB27F00DB11D639FAA272C
:10213000F00DB11DAA1F649F6627B00DA11D661F7B
:10214000829F2227B00DA11D621F739FB00DA11D9C
:10215000621F839FA00D611D221F749F3327A00D56
:10216000611D231F849F600D211D822F762F6A2FF2
:1021700011249F5750408AF0E1F088234AF0EE0F77
:10218000FF1FBB1F661F771F881F91505040A9F784
:102190009E3F510570F05CCFA6CF5F3FECF3983EB9
:1021A000DCF3869577956795B795F795E7959F5FEB
:1021B000C1F7FE2B880F911D9695879597F9089585
:1021C000A1E21A2EAA1BBB1BFD010DC0AA1FBB1F3B
:1021D000EE1FFF1FA217B307E407F50720F0A21BAD
:1021E000B30BE40BF50B661F771F881F991F1A941A
:1021F00069F760957095809590959B01AC01BD0144
:10220000CF010895052E97FB1EF400940E9419112A
:1022100057FD07D00E94E01007FC03D04EF40C9449
:10222000191150954095309521953F4F4F4F5F4F75
:10223000089590958095709561957F4F8F4F9F4F32
:1022400008950E943011A59F900DB49F900DA49FFA
:10225000800D911D112408950790F691E02D0994A9
:10226000A29FB001B39FC001A39F700D811D1124D7
:10227000911DB29F700D811D1124911D08958F92A3
:102280009F92AF92BF92CF92DF92EF92FF92CF9345
:10229000DF93EC01688179818A819B8161157105E9
:1022A0008105910521F464E279ED8BE597E02DE15C
:1022B00033EF41E050E00E94021149015A019B01B5
:1022C000AC01A7EAB1E40E9421116B017C01ACEEE4
:1022D000B4EFA50194010E94FD11C60ED71EE81EA1
:1022E000F91EF7FE06C081E0C81AD108E10880E8AF
:1022F000F80AC882D982EA82FB82C701B6019F77B9
:10230000DF91CF91FF90EF90DF90CF90BF90AF9093
:102310009F908F9008950C943F1180E191E00C9470
:102320003F116093100170931101809312019093FB
:10233000130108951F93FC0199278827BC01E89495
:1023400011911032E9F3193010F01E30C8F31B322E
:1023500051F01D3249F4689406C00E94E511610FE6
:10236000711D811D911D119110531A30B0F33EF46F
:1023700090958095709561957F4F8F4F9F4F1F91DE
:102380000895FB01DC0102C001900D9241505040C4
:10239000D8F70895FC018191861721F08823D9F799
:1023A000992708953197CF010895FB01DC018D91A4
:1023B000019080190110D9F3990B0895FB01DC01FC
:1023C00001900D920020E1F70895592F482F372FE3
:1023D000262F660F771F881F991F660F771F881F8C
:1023E000991F620F731F841F951F660F771F881F29
:1023F000991F0895B7FF0C9421110E942111821B8F
:10240000930B089511E0CEE0D1E000E006C02297E2
:102410000109FE010BBF0E942C11C031D10780E0E1
:082420000807A9F7F894FFCFAB
:102428006E616E00696E66006F7666002E000000B1
:10243800010000000180004D040000456C20434D60
:1024480044206573204D4F544F52004572726F728D
:1024580020656E20636F6D616E646F00436F6D6100
:102468006E646F206E6F207265636F6E6F63696450
:102478006F00000000006909560A1F093B092B0973
:022488005909F0
:00000001FF
