:100000000C9488000C94B7000C94B7000C94B700C3
:100010000C94B7000C94B7000C94B7000C94B70084
:100020000C94B7000C944C020C94B7000C94B700DD
:100030000C94B7000C94B7000C94B7000C94B70064
:100040000C94B7000C94B7000C9475050C94B70091
:100050000C9494070C942A080C94B7000C94B700E5
:100060000C94B7000C94B7000C94B7000C94B70034
:100070000C94D0070C945E080C94B7000C94B70055
:100080000C9469010C94B7000C94B7000000210097
:10009000240027002A0000002200250028002B0051
:1000A00000002000230026002900040403030303AA
:1000B0000303030402020202010101010101010123
:1000C00004020202020404030102010204081020D7
:1000D0004040102040800102040810204080800130
:1000E0000208042010800000000000000000000052
:1000F0000000000000000000000000000000000000
:10010000000304005C015B04B904D3049F09F104FB
:1001100011241FBECFEFD0E4DEBFCDBF11E0A0E0C1
:10012000B1E0ECE1F4E200E00BBF02C007900D92F9
:10013000A835B107D9F724E0A8E5B1E001C01D92C8
:10014000A334B207E1F711E0CEE0D1E000E006C051
:1001500022970109FE010BBF0E942611C430D1076E
:1001600080E00807A9F70E94410A0C94FC110C9446
:1001700000008F929F92AF92BF92CF92DF92EF9248
:10018000FF920F931F93CF93DF93EC015A018B01E2
:10019000C0905801D0905901E0905A01F0905B0155
:1001A000A7019601B501C8010E94240F87FD13C065
:1001B00020E030E048EC52E4B501C8010E94731021
:1001C00018163CF4C12CD12C88ECE82E82E4F82ED1
:1001D00002C0650178018A819B81AC81BD818E83DB
:1001E0009F83A887B987CA82DB82EC82FD828881DF
:1001F000811104C0F7FAF094F7F8F09420E030E0B1
:1002000048EC52E4C701B6010E94280F20E030E01C
:100210004FE753E40E9477106B017C018A849B8432
:10022000AC84BD84A50194010E94731018165CF47F
:1002300061E088890E94300760E08A890E94300767
:10024000C701B60114C0A50194015058C701B601F9
:100250000E94240F87FF11C060E088890E94300748
:1002600061E08A890E943007C701B60190580E9458
:10027000900F8E850E94350611C060E070E08E857B
:100280000E94350660E08E850E94300760E0888914
:100290000E94300760E08A890E9430071982DF914E
:1002A000CF911F910F91FF90EF90DF90CF90BF9073
:1002B000AF909F908F90089580E090E0A8ECB2EC12
:1002C0008093580190935901A0935A01B0935B0118
:1002D00008951F920F920FB60F9211240BB60F9232
:1002E0002F933F934F935F936F937F938F939F933E
:1002F000AF93BF93EF93FF9380915D0187FF05C09C
:1003000010929500109294001AC020915D0133273D
:1003100027FD309580915C0190E0281739077CF427
:1003200080915D01992787FD9095FC01EE0FFF1FDD
:10033000E80FF91FE25AFE4F808186FD15C08091BB
:100340005D018F5F80935D0120915D01332727FD63
:10035000309580915C0190E028173907BCF48091BA
:100360005D018C305CF112C080915D01992787FDA1
:100370009095FC01EE0FFF1FE80FF91FE25AFE4FA8
:10038000808160E08F730E943007D9CF8091940004
:1003900090919500049680349C4918F480E49CE97F
:1003A00005C08091940090919500049690939900D7
:1003B000809398008FEF80935D0138C08091940006
:1003C0009091950020915D01332727FD3095F9012B
:1003D000EE0FFF1FE20FF31FE25AFE4F2181328121
:1003E000820F931F909399008093980080915D01F4
:1003F000992787FD9095FC01EE0FFF1FE80FF91F6D
:10040000E25AFE4F808186FF11C080915D019927DD
:1004100087FD9095FC01EE0FFF1FE80FF91FE25AD0
:10042000FE4F808161E08F730E943007FF91EF9152
:10043000BF91AF919F918F917F916F915F914F91FC
:100440003F912F910F900BBE0F900FBE0F901F90FA
:10045000189520915C012C30A0F431E0320F3093DC
:100460005C01FC012283822F90E0FC01EE0FFF1F54
:10047000E80FF91FE25AFE4F88EB9BE092838183DD
:1004800008952FEFFC0122830895FC0115826093EB
:1004900082011092840108951F920F920FB60F925D
:1004A00011240BB60F922F933F934F935F936F934B
:1004B0007F938F939F93AF93BF93EF93FF9380911D
:1004C00082010E94630720918501309186012F5F90
:1004D0003F4F309386012093850190914F029436CF
:1004E00018F095E090938301909183019330B9F0D7
:1004F00018F4923039F057C0943059F1953009F41E
:100500004CC051C081114FC02091850130918601AE
:100510002436310508F443C010924F021CC08130CC
:1005200009F041C0E0914F0291E09E0F90934F027D
:10053000F0E02091850130918601EE0FFF1FEE570C
:10054000FE4F36832583109286011092850194E038
:1005500021C0811117C0E0914F0291E09E0F90934E
:100560004F02F0E02091850130918601EE0FFF1FD0
:10057000EE57FE4F36832583109286011092850137
:1005800093E008C020918501309186012536310520
:1005900050F095E09093830106C0811104C0109241
:1005A00086011092850190918401992329F081118F
:1005B00002C02D9A01C02D98FF91EF91BF91AF918C
:1005C0009F918F917F916F915F914F913F912F916B
:1005D0000F900BBE0F900FBE0F901F901895FF92BB
:1005E0000F931F93CF93DF93FC01C62FD42FF22ECE
:1005F000832F008311821282138214821582168245
:100600001782108611860DEC1CEC2CEC3DE3028762
:1006100013872487358766877787408B518BF28ACB
:10062000838B61E08C2F0E94B30661E08D2F0E94C6
:10063000B30661E08F2D0E94B30660E08C2F0E940C
:10064000300760E08D2F0E94300760E08F2DDF9132
:10065000CF911F910F91FF900C9430070F9380E082
:1006600090E0A8ECB2EC8093D4029093D502A093D2
:10067000D602B093D7026EE070E08EEC92E00E945A
:10068000450289EC92E00E94290284EC92E00E94EB
:1006900029021092C3021092C2021092BF0210925D
:1006A000BE0221E030E03093C1022093C0023093BB
:1006B0009C0220939B0265E060939D024FEF5FEFE9
:1006C0005093BD024093BC028DE292EBA6E6B1E4EA
:1006D00080939E0290939F02A093A002B093A102E8
:1006E00084E299EBACEDBFE38093A2029093A30266
:1006F000A093A402B093A50280E090E0A0EAB1E448
:100700008093A6029093A702A093A802B093A90297
:1007100084EB98ECA1E9B1E48093AA029093AB0238
:10072000A093AC02B093AD0283E49CE1ADEAB0E4E7
:100730008093AE029093AF02A093B002B093B10247
:1007400080E090E0ACE8B2E48093B2029093B30210
:10075000A093B402B093B5028EEF91E09093B702EC
:100760008093B60289EB90E09093B9028093B8022F
:1007700085E690E09093BB028093BA0230937902B1
:100780002093780260937A0250939A0240939902E0
:1007900086EE9FE3A8ECB0E480937B0290937C020A
:1007A000A0937D02B0937E028FE29DEDACEEBFE39D
:1007B00080937F0290938002A0938102B093820283
:1007C00080E090E0A0E2B1E4809383029093840201
:1007D000A0938502B09386028AEA92E8ACE0B1E485
:1007E0008093870290938802A0938902B0938A0233
:1007F0008AE191E5A2ECB0E480938B0290938C02A5
:10080000A0938D02B0938E0280E090E0ACE0B2E461
:1008100080938F0290939002A0939102B0939202E2
:1008200083E092E0909394028093930287EA90E0B1
:1008300090939602809395028AE590E090939802B7
:100840008093970201E028E130E047E150E06BE15E
:1008500070E084E692E00E94EF022AE130E049E194
:1008600050E06CE170E080E592E00E94EF020F91B1
:10087000089540E052EC61E070E08BEF92E00E945E
:10088000920840E052EC61E070E08DE993E00E9454
:10089000920880E00E9413060E945F0B80E190E0C6
:1008A0009093CA028093C90281E190E09093C502BF
:1008B0008093C40208950C942E03EF92FF920F933D
:1008C0001F93CF93DF93CDB7DEB72C970FB6F89475
:1008D000DEBF0FBECDBF8C0160E20E94A70B7C0182
:1008E0008FEFE816F806B1F1970140E050E0B8014B
:1008F000CE0107960E94AA0CF80124813581A70138
:100900004F5F5F4FB801CE0101960E94AA0CCE0145
:1009100007960E94780B0E94C30FAB01BC0184E6CE
:1009200092E00E94B900CE0101960E94780B0E94CD
:10093000C30FAB01BC0180E592E00E94B900CE017B
:1009400001960E94080DCE0107960E94080D80E0D6
:1009500090E002C08FEF9FEF2C960FB6F894DEBFA9
:100960000FBECDBFDF91CF911F910F91FF90EF9000
:10097000089580E090E0A8ECB2EC8093D8029093C8
:10098000D902A093DA02B093DB0208958CED92E0D5
:100990000E94080D82EE92E00E94080D88EE92E01F
:1009A0000C94080D089580E090E0A8ECB2EC8093E0
:1009B000EE029093EF02A093F002B093F10260E296
:1009C00071E088EE92E00E94780C60E271E082EEC5
:1009D00092E00E94780C60E271E08CED92E00C9461
:1009E000780C0C94C604CF93DF9300D000D000D0D5
:1009F000CDB7DEB70E94390444E650E060E070E015
:100A00008BEF92E00E94100B8BEF92E00E9419098D
:100A100018161906CCF76BEF72E0CE0101960E9412
:100A2000420BBE016F5F7F4F88EE92E00E94F10C97
:100A3000CE0101960E94080D60E288EE92E00E94CD
:100A4000A70B8C010F3F8FEF1807F1F2980140E0E0
:100A500050E068EE72E0CE0101960E94AA0CBE0141
:100A60006F5F7F4F82EE92E00E94F10CCE01019603
:100A70000E94080D2091EC023091ED02A8014F5F19
:100A80005F4F68EE72E0CE0101960E94AA0CBE0193
:100A90006F5F7F4F8CED92E00E94F10CCE010196CA
:100AA0000E94080D6BE171E082EE92E00E94AC0BB7
:100AB0008823A1F08CED92E00E945D04892B09F45B
:100AC000A3CF61E271E08BEF92E00E94B60A68EE7C
:100AD00072E08BEF92E00E94FC0A96CF62E371E035
:100AE0008BEF92E00E94B60A8FCF1F920F920FB643
:100AF0000F9211242F933F938F939F93AF93BF93A4
:100B00008091F6029091F702A091F802B091F9025B
:100B10003091FA020196A11DB11D232F2D5F2D37B3
:100B200020F02D570196A11DB11D2093FA0280934C
:100B3000F6029093F702A093F802B093F902809125
:100B4000F2029091F302A091F402B091F5020196A5
:100B5000A11DB11D8093F2029093F302A093F402C1
:100B6000B093F502BF91AF919F918F913F912F91DB
:100B70000F900FBE0F901F9018958FB7F89420918B
:100B8000F6023091F7024091F8025091F9028FBFBE
:100B9000B901CA010895789484B5826084BD84B592
:100BA000816084BD85B5826085BD85B5816085BD68
:100BB000EEE6F0E0808181608083E1E8F0E0108281
:100BC000808182608083808181608083E0E8F0E0C2
:100BD000808181608083E1EBF0E0808184608083AC
:100BE000E0EBF0E0808181608083E1E9F0E08081EA
:100BF00082608083808181608083E0E9F0E0808191
:100C000081608083EAE7F0E0808184608083808176
:100C1000826080838081816080838081806880831E
:100C20001092C1000895982F883108F0985197705C
:100C3000809114018295880F880F807C892B809386
:100C40007C0080917A00806480937A0080917A00A1
:100C500086FDFCCF2091780040917900942F80E0B0
:100C600030E0282B392BC90108951F93CF93DF93D0
:100C7000182FEB0161E00E94B306209709F468C0C9
:100C8000CF3FD10509F467C0E12FF0E0EA51FF4FF3
:100C90008491843061F1853040F48230C9F0833032
:100CA000E0F4813009F051C00EC0873091F18830F6
:100CB00020F4863009F049C024C0883091F1893091
:100CC00009F043C038C084B5806884BDC7BD47C043
:100CD00084B5806284BDC8BD42C0809180008068B8
:100CE00080938000D0938900C093880038C08091A1
:100CF0008000806280938000D0938B00C0938A0034
:100D00002EC08091B00080688093B000C093B30083
:100D100026C08091B00080628093B000C093B40080
:100D20001EC080919000806880939000D0939900BD
:100D3000C093980014C080919000806280939000CE
:100D4000D0939B00C0939A000AC0C038D1051CF410
:100D5000812F60E002C0812F61E00E943007DF91A7
:100D6000CF911F910895CF93DF93482F50E0CA0190
:100D700088539F4FFC01349146555F4FFA0184918F
:100D8000882369F190E0880F991FFC01E457FF4F19
:100D9000A591B491FC01EA56FF4FC591D491662309
:100DA00051F42FB7F8948C91932F909589238C93BD
:100DB000888189230BC0623061F42FB7F8948C913D
:100DC000932F909589238C938881832B88832FBFC1
:100DD00006C09FB7F8948C91832B8C939FBFDF91B3
:100DE000CF9108958430C9F0853038F48230F1F025
:100DF000833078F4813099F516C08730F9F0883067
:100E000018F4863061F516C08830F1F0893039F574
:100E100021C0809180008F7703C0809180008F7DFA
:100E200080938000089584B58F7702C084B58F7D4C
:100E300084BD08958091B0008F7703C08091B00089
:100E40008F7D8093B0000895809190008F7780937C
:100E500090000895809190008F7D80939000089578
:100E6000FF920F931F93F62E482F50E0CA018A512C
:100E70009F4FFC012491CA0188539F4FFC0114919C
:100E800046555F4FFA0104910023C9F0222319F05F
:100E9000822F0E94F206E02FF0E0EE0FFF1FEA56CD
:100EA000FF4FA591B4919FB7F894FF2021F48C9146
:100EB0001095812302C08C91812B8C939FBF1F9131
:100EC0000F91FF9008950F931F93482F50E0CA0190
:100ED0008A519F4FFC012491CA0188539F4FFC0106
:100EE000049146555F4FFA011491112319F420E043
:100EF00030E015C0222319F0822F0E94F206812FC4
:100F000090E0880F991F80569F4FFC01A591B491E6
:100F10008C9120E030E0802311F021E030E0C90125
:100F20001F910F91089508951F920F920FB60F927F
:100F30000BB60F9211242F933F934F938F939F9350
:100F4000EF93FF938091C00082FD19C04091C600CD
:100F500080911903282F30E02F5F3F4F2F7330709F
:100F600080911A0390E02817390759F0E09119038E
:100F7000F0E0E550FD4F42A32093190302C0809199
:100F8000C600FF91EF919F918F914F913F912F91CB
:100F90000F900BBE0F900FBE0F901F9018950895E5
:100FA0001F920F920FB60F920BB60F9211242F9330
:100FB0003F934F938F939F93EF93FF938091C8003C
:100FC00082FD19C04091CE008091BB03282F30E0F4
:100FD0002F5F3F4F2F7330708091BC0390E0281734
:100FE000390759F0E091BB03F0E0E356FC4F42A310
:100FF0002093BB0302C08091CE00FF91EF919F919F
:101000008F914F913F912F910F900BBE0F900FBE7C
:101010000F901F9018958091190320911A0390E06A
:10102000805C9F4F821B91098F739070892B11F008
:101030000E9493078091BB032091BC0390E0805CE9
:101040009F4F821B91098F739070892B11F00E9422
:10105000CF0708951F920F920FB60F920BB60F9203
:1010600011242F938F939F93EF93FF9390911B03E2
:1010700080911C03981731F48091C1008F7D80937B
:10108000C10010C0E0911C03F0E0E35AFC4F208146
:1010900080911C0390E001968F73907080931C03E5
:1010A0002093C600FF91EF919F918F912F910F9008
:1010B0000BBE0F900FBE0F901F9018951F920F92AE
:1010C0000FB60F920BB60F9211242F938F939F930D
:1010D000EF93FF939091BD038091BE03981731F475
:1010E0008091C9008F7D8093C90010C0E091BE033C
:1010F000F0E0E150FC4F20818091BE0390E001962A
:101100008F7390708093BE032093CE00FF91EF9178
:101110009F918F912F910F900BBE0F900FBE0F904C
:101120001F901895AF92BF92DF92EF92FF920F93AC
:101130001F93CF93DF93EC017A018B01DD244030C4
:1011400081EE580780E0680780E0780711F0DD2421
:10115000D39491E0A92EB12CE889F989DD2069F0BA
:10116000C5010C8C02C0880F991F0A94E2F7808396
:1011700060E079E08DE390E005C0108260E874E8FB
:101180008EE190E0A80197010E94DA1021503040D2
:1011900040405040569547953795279580E120303F
:1011A000380720F0DD2011F0DD24D6CFEC85FD8559
:1011B0003083EE85FF8520831D8EEA89FB8940817F
:1011C00021E030E0C901088C02C0880F991F0A9401
:1011D000E2F7482B4083EA89FB894081C901098CE9
:1011E00002C0880F991F0A94E2F7482B4083EA89CE
:1011F000FB894081C9010A8C02C0880F991F0A949B
:10120000E2F7482B4083EA89FB8980810B8C02C07E
:10121000220F331F0A94E2F7209528232083DF91C1
:10122000CF911F910F91FF90EF90DF90BF90AF9003
:101230000895FC01268D878D30E0205C3F4F281BF0
:1012400031092F733070C9010895FC01968D878D87
:10125000981719F42FEF3FEF06C0878DE80FF11DA7
:1012600082A1282F30E0C9010895DC015E969C918F
:101270005E975F968C915F97981719F42FEF3FEF69
:1012800010C05F968C915F97FD01E80FF11D92A150
:101290005F968C915F978F5F8F735F968C93292FEA
:1012A00030E0C9010895DC015D968C915D9788233B
:1012B00039F05096ED91FC915197808186FFF9CFDE
:1012C0005D961C920895DC0190968C919097282F42
:1012D00030E02F5F3F4F2F73307091968C91919734
:1012E00090E028173907C9F390968C919097FD01EB
:1012F000E80FF11DEE59FF4F608390962C93909765
:101300005296ED91FC915397208181E090E05B969D
:101310000C905B9702C0880F991F0A94E2F7282B64
:10132000208381E05D968C935D975096ED91FC91C2
:10133000519780818064808381E090E008951F93BD
:101340001092FE021092FD0228EE33E040E050E0E1
:101350002093FF0230930003409301035093020354
:101360006CE471E07093FC026093FB0210921C032A
:1013700080911C0380931B0310921A0380911A031F
:101380008093190385EC90E0909308038093070302
:1013900084EC90E090930A038093090380EC90E042
:1013A00090930C0380930B0381EC90E090930E03D9
:1013B00080930D0382EC90E09093100380930F03D1
:1013C00086EC90E0909312038093110314E0109345
:1013D0001303B3E0B0931403A7E0A0931503F5E063
:1013E000F0931603E1E0E09317031092A00310922C
:1013F0009F032093A1033093A2034093A303509330
:10140000A40370939E0360939D031092BE0380918A
:10141000BE038093BD031092BC038091BC038093F4
:10142000BB038DEC90E09093AA038093A9038CEC0E
:1014300090E09093AC038093AB0388EC90E09093A2
:10144000AE038093AD0389EC90E09093B00380935A
:10145000AF038AEC90E09093B2038093B1038EECDB
:1014600090E09093B4038093B3031093B503B093CB
:10147000B603A093B703F093B803E093B9031F91A9
:101480000895CF93DF930E94CB050E94F304CBE035
:10149000D8E00E94D2042097E1F30E940B08F9CF14
:1014A000CF92DF92EF92FF920F931F93CF93DF9330
:1014B0007C016B018A01C0E0D0E00FC0D6016D91C4
:1014C0006D01D701ED91FC910190F081E02DC701F4
:1014D0000995C80FD91F015010400115110571F76A
:1014E000CE01DF91CF911F910F91FF90EF90DF9090
:1014F000CF900895EF92FF920F931F938C01DC0120
:10150000ED91FC910190F081E02D6DE009957C0159
:10151000D801ED91FC910190F081E02DC8016AE0C5
:1015200009959C012E0D3F1DC9011F910F91FF9040
:10153000EF900895CF93DF93EC016115710519F4D5
:1015400020E030E00FC0DB010D900020E9F711979B
:10155000A61BB70BE881F9810280F381E02DAD0174
:1015600009959C01C901DF91CF910895EF92FF92F7
:101570000F931F937C010E949A0A8C01C7010E945D
:101580007A0A080F191FC8011F910F91FF90EF9061
:101590000895AF92BF92CF92DF92EF92FF920F9396
:1015A0001F93CF93DF935C016B01EE24FF24C0E017
:1015B000D0E010C0D501ED91FC9100811181C601F0
:1015C000BE010E94670B682FC501F8010995E80E5E
:1015D000F91E2196F60184819581C817D90750F329
:1015E000C701DF91CF911F910F91FF90EF90DF9096
:1015F000CF90BF90AF900895EF92FF920F931F93FB
:101600007C010E94C90A8C01C7010E947A0A9C01D0
:10161000200F311FC9011F910F91FF90EF90089586
:10162000FC0144835583668377830895CF93DF93CA
:10163000EC010E94BD05688779878A879B87E881CE
:10164000F9810680F781E02DCE0109959C0197FF75
:1016500015C00E94BD05288539854A855B85621BBA
:10166000730B840B950B2C813D814E815F8162173A
:1016700073078407950718F32FEF3FEFC901DF9138
:10168000CF9108950F931F93CF93DF93182F092FB6
:10169000EB016EE071E00E94780C04C0812F902F66
:1016A0000E94320CCE010E94160BBC0197FFF6CFB0
:1016B000812F902FDF91CF911F910F910895009767
:1016C00029F0BC0180E090E00E948B110895FC019C
:1016D000848195816817790748F40190F081E02DA5
:1016E000309721F0E60FF71F8081089580E008957C
:1016F000FC0180819181009729F420E030E040E0F6
:1017000050E004C00E9494119B01AC01B901CA01D0
:101710000895CF93DF93FC01848195814817590781
:1017200068F4C081D181772767FD7095CE01840F61
:10173000951F0E94C4119C01009719F42FEF3FEFF1
:1017400002C02C1B3D0BC901DF91CF91089540E0F1
:1017500050E00E94890B0895DC01FB0114968D91E5
:101760009C911597892B31F461157105A9F090E0D2
:10177000808108C00D90BC91A02D6115710529F4E0
:1017800090E08C91882349F407C0CD010E94CF11CD
:101790009C0190E0232B09F491E0892F08950F9389
:1017A0001F93CF93DF93EC018B016F5F7F4F888195
:1017B00099810E94430E009711F480E005C099833F
:1017C00088831B830A8381E0DF91CF911F910F9162
:1017D0000895CF93DF93EC0188819981892B29F0BB
:1017E0008A819B818617970760F4CE010E94CF0BF8
:1017F000882341F08C819D81892B19F4E881F9813E
:10180000108281E0DF91CF910895EF92FF920F93C4
:101810001F93CF93DF93EC017B016C817D81E114F9
:10182000F104C1F04115510599F08A01060F171F07
:10183000B8010E94E90B882369F0888199812C8185
:101840003D81820F931FB7010E94D8111D830C8325
:1018500081E001C080E0DF91CF911F910F91FF9057
:10186000EF900895DF93CF9300D0CDB7DEB76983B3
:101870001A82BE016F5F7F4F41E050E00E94050C6D
:101880000F900F90CF91DF910895CF93DF93EC01EC
:1018900088819981009711F00E94AB0D19821882FE
:1018A0001D821C821B821A82DF91CF910895EF92D4
:1018B000FF920F931F93CF93DF93EC017B018A017B
:1018C000BA010E94E90B882321F4CE010E94450C45
:1018D00007C01D830C8388819981B7010E94D811AC
:1018E000CE01DF91CF911F910F91FF90EF9008955E
:1018F000CF93DF93EC01198218821B821A821D821A
:101900001C826115710551F0DB010D900020E9F793
:101910001197A61BB70BAD010E94570CDF91CF9119
:1019200008950F931F93182F092F6115710559F012
:10193000DB010D900020E9F71197A61BB70BAD0155
:101940000E94570C02C00E94450C812F902F1F91BE
:101950000F910895BF92CF92DF92EF92FF920F9373
:101960001F93CF93DF93082FB92E6B017A01E90102
:101970002417350710F4EA017901802F9B2D6FE0C1
:1019800071E00E94780CD60114968D919C91159768
:101990008E159F05D0F08C179D0708F4EC01D60139
:1019A000ED91FC911197EC0FFD1F108110826D914C
:1019B0007C916E0D7F1D802F9B2D0E94910CD60176
:1019C000ED91FC91EC0FFD1F1083802F9B2DDF917B
:1019D000CF911F910F91FF90EF90DF90CF90BF902C
:1019E0000895CF93DF93EC01FB018617970761F011
:1019F000608171816115710529F0448155810E94D2
:101A0000570C02C00E94450CCE01DF91CF91089582
:101A1000FC01808191810E94AB0D08950F931F936B
:101A2000CF93DF93BC018230910510F462E070E047
:101A3000E0914104F091420440E050E0A0E0B0E0C9
:101A400024C08081918186179707D0F08617970769
:101A500071F482819381109729F013969C938E9351
:101A600012972CC0909342048093410427C04115E3
:101A7000510519F08417950718F48D01AC01EF0199
:101A8000DF01828193819C01F9013097D1F64115E4
:101A90005105F9F0CA01861B970B8430910580F43B
:101AA0008A819B810115110521F0F80193838283BE
:101AB00004C09093420480934104FE01329645C0D5
:101AC000FE01E80FF91F6193719302979983888350
:101AD0003CC080913F0490914004892B41F4809157
:101AE0001701909118019093400480933F04409116
:101AF000190150911A014115510541F44DB75EB7D6
:101B00008091150190911601481B590B20913F04BB
:101B10003091400424173507B0F4CA01821B930B9F
:101B20008617970780F0AB014E5F5F4F84179507CC
:101B300050F0420F531F5093400440933F04F9016B
:101B40006193719302C0E0E0F0E0CF01DF91CF91AB
:101B50001F910F910895CF93DF939C01009709F493
:101B60008FC0EC0122971B821A8260914104709110
:101B700042046115710581F488819981820F931F58
:101B800020913F04309140042817390739F5D0934C
:101B90004004C0933F0474C0DB0140E050E0AC1748
:101BA000BD0708F1BB83AA83FE0121913191E20FA9
:101BB000F31FAE17BF0779F48D919C911197280FF1
:101BC000391F2E5F3F4F3983288312968D919C9148
:101BD00013979B838A834115510571F4D093420476
:101BE000C09341044DC012968D919C911397AD0105
:101BF000009711F0DC01D3CFDA011396DC93CE937A
:101C00001297FA0121913191E20FF31FCE17DF07EE
:101C100069F488819981280F391F2E5F3F4FFA019F
:101C2000318320838A819B8193838283E0E0F0E08B
:101C3000DB0112968D919C911397009719F0BC01CE
:101C4000FD01F6CFAB014E5F5F4FDB018D919C91A3
:101C5000840F951F20913F043091400428173907C5
:101C600079F4309729F4109242041092410402C092
:101C700013821282425050405093400440933F04DC
:101C8000DF91CF9108956F927F928F929F92AF9242
:101C9000BF92CF92DF92EF92FF920F931F93CF9359
:101CA000DF938C01009729F4CB010E940E0D8C016B
:101CB000BBC08EEFE82E8FEFF82EE00EF11E48012C
:101CC000860E971E8E149F0408F4ACC0D7014D9168
:101CD0005C91119746175707B8F04530510508F445
:101CE000A3C0CA0104978617970708F49DC0425005
:101CF0005040461B570BF401419351936D937C93D5
:101D0000CF010E94AB0D90C05B01A41AB50A380147
:101D1000640E751EA0914104B0914204E0E0F0E031
:101D2000CC24DD2447C0A615B705A9F5CD91DC91DB
:101D30001197CE0102968A159B0568F1CE018A198A
:101D40009B09029612962C91129713963C91059737
:101D500058F0F40122833383CA19DB09D183C0838D
:101D6000D7016D937C9309C04E5F5F4F4C0F5D1F91
:101D7000F70151834083C901FC01C114D10431F042
:101D8000D6011396FC93EE9312974EC0F093420443
:101D9000E093410449C08D919C911197E817F90790
:101DA00008F4FC016D0112968C91129713969C9188
:101DB0009C01D901109709F0B6CF80913F04909112
:101DC000400486159705E9F4E617F707D0F420914B
:101DD000190130911A012115310541F42DB73EB793
:101DE0008091150190911601281B390B82169306DC
:101DF000C8F49092400480923F04F701718360839D
:101E000013C0CB010E940E0DEC01009759F0D701D1
:101E10004D915C91B8010E94BB11C8010E94AB0DAD
:101E20008E0102C000E010E0C801DF91CF911F9148
:101E30000F91FF90EF90DF90CF90BF90AF909F9069
:101E40008F907F906F900895D9D008F481E0089525
:101E50000CD00FC107D140F0FED030F021F45F3F2D
:101E600019F0F0C0511139C1F3C014D198F399237E
:101E7000C9F35523B1F3951B550BBB27AA2762174E
:101E80007307840738F09F5F5F4F220F331F441F93
:101E9000AA1FA9F333D00E2E3AF0E0E830D09150CB
:101EA0005040E695001CCAF729D0FE2F27D0660FB8
:101EB000771F881FBB1F261737074807AB07B0E8F7
:101EC00009F0BB0B802DBF01FF2793585F4F2AF00D
:101ED0009E3F510568F0B6C000C15F3FECF3983EED
:101EE000DCF3869577956795B795F7959F5FC9F76A
:101EF000880F911D9695879597F90895E1E0660FF3
:101F0000771F881FBB1F621773078407BA0720F06B
:101F1000621B730B840BBA0BEE1F88F7E0950895D4
:101F200004D06894B111D9C00895BCD088F09F57EF
:101F300090F0B92F9927B751A0F0D1F0660F771F15
:101F4000881F991F1AF0BA95C9F712C0B13081F0F5
:101F5000C3D0B1E00895C0C0672F782F8827B85F3D
:101F600039F0B93FCCF3869577956795B395D9F756
:101F70003EF490958095709561957F4F8F4F9F4F60
:101F80000895E89409C097FB3EF49095809570956C
:101F900061957F4F8F4F9F4F9923A9F0F92F96E9B5
:101FA000BB279395F695879577956795B795F1112A
:101FB000F8CFFAF4BB0F11F460FF1BC06F5F7F4FC7
:101FC0008F4F9F4F16C0882311F096E911C07723D9
:101FD00021F09EE8872F762F05C0662371F096E8E2
:101FE000862F70E060E02AF09A95660F771F881FB1
:101FF000DAF7880F9695879597F90895990F000855
:10200000550FAA0BE0E8FEEF16161706E807F907CA
:10201000C0F012161306E407F50798F0621B730B65
:10202000840B950B39F40A2661F0232B242B252BE6
:1020300021F408950A2609F4A140A6958FEF811D89
:10204000811D089597F99F6780E870E060E008952A
:102050009FEF80EC089500240A94161617061806C0
:102060000906089500240A9412161306140605069C
:102070000895092E0394000C11F4882352F0BB0F2D
:1020800040F4BF2B11F460FF04C06F5F7F4F8F4F90
:102090009F4F089557FD9058440F551F59F05F3FCB
:1020A00071F04795880F97FB991F61F09F3F79F07A
:1020B00087950895121613061406551FF2CF4695FC
:1020C000F1DF08C0161617061806991FF1CF86957E
:1020D0007105610508940895E894BB276627772762
:1020E000CB0197F908958ADF08F48FEF08950BD09C
:1020F000C0CFB1DF28F0B6DF18F0952309F0A2CFEA
:10210000A7CF1124EACFC6DFA0F3959FD1F3950F97
:1021100050E0551F629FF001729FBB27F00DB11D6B
:10212000639FAA27F00DB11DAA1F649F6627B00DFB
:10213000A11D661F829F2227B00DA11D621F739FE4
:10214000B00DA11D621F839FA00D611D221F749FF2
:102150003327A00D611D231F849F600D211D822F39
:10216000762F6A2F11249F5750408AF0E1F0882380
:102170004AF0EE0FFF1FBB1F661F771F881F91508D
:102180005040A9F79E3F510570F05CCFA6CF5F3F4E
:10219000ECF3983EDCF3869577956795B795F795C0
:1021A000E7959F5FC1F7FE2B880F911D9695879548
:1021B00097F90895A1E21A2EAA1BBB1BFD010DC0C1
:1021C000AA1FBB1FEE1FFF1FA217B307E407F507E7
:1021D00020F0A21BB30BE40BF50B661F771F881FC3
:1021E000991F1A9469F760957095809590959B0159
:1021F000AC01BD01CF010895052E97FB1EF400949C
:102200000E94131157FD07D00E94DA1007FC03D07B
:102210004EF40C94131150954095309521953F4FF5
:102220004F4F5F4F089590958095709561957F4FC2
:102230008F4F9F4F08950E942A11A59F900DB49F24
:10224000900DA49F800D911D112408950790F69183
:10225000E02D0994A29FB001B39FC001A39F700D10
:10226000811D1124911DB29F700D811D1124911D9E
:1022700008958F929F92AF92BF92CF92DF92EF928A
:10228000FF92CF93DF93EC01688179818A819B81F2
:10229000611571058105910521F464E279ED8BE505
:1022A00097E02DE133EF41E050E00E94FC1049013E
:1022B0005A019B01AC01A7EAB1E40E941B116B011A
:1022C0007C01ACEEB4EFA50194010E94F711C60E9B
:1022D000D71EE81EF91EF7FE06C081E0C81AD10815
:1022E000E10880E8F80AC882D982EA82FB82C70145
:1022F000B6019F77DF91CF91FF90EF90DF90CF9065
:10230000BF90AF909F908F9008950C94391180E109
:1023100091E00C9439116093100170931101809336
:1023200012019093130108951F93FC0199278827A8
:10233000BC01E89411911032E9F3193010F01E300D
:10234000C8F31B3251F01D3249F4689406C00E9454
:10235000DF11610F711D811D911D119110531A30F4
:10236000B0F33EF490958095709561957F4F8F4FB7
:102370009F4F1F910895FB01DC0102C001900D9257
:1023800041505040D8F70895FC018191861721F003
:102390008823D9F7992708953197CF010895FB0134
:1023A000DC018D91019080190110D9F3990B0895EA
:1023B000FB01DC0101900D920020E1F70895592FF7
:1023C000482F372F262F660F771F881F991F660FFC
:1023D000771F881F991F620F731F841F951F660F39
:1023E000771F881F991F0895B7FF0C941B110E9437
:1023F0001B11821B930B089511E0CEE0D1E000E0A9
:1024000006C022970109FE010BBF0E942611C031B0
:0C241000D10780E00807A9F7F894FFCF7F
:10241C006E616E00696E66006F7666002E000000BD
:10242C0001000000018000430400004D4F544F5246
:10243C00004572726F7220656E20636F6D616E6401
:10244C006F00436F6D616E646F206E6F20726563F9
:10245C006F6E6F6369646F00000000006309500ABF
:08246C0019093509250953097E
:00000001FF
